:1000000015C1000044C1000042C1000040C1000011
:100010003EC100003CC100003AC1000038C10000F0
:1000200036C1000034C1000032C1000030C1000000
:100030002EC100002CC100002AC1000028C1000010
:1000400026C1000024C1000022C1000020C1000020
:100050001EC100001CC100001AC10000D4C3000072
:1000600016C100008BC2000060C2000010C1000079
:100070000EC100000CC100000AC1000008C1000050
:1000800006C1000004C1000002C1000000C1000060
:10009000FEC00000FCC00000FAC00000F8C0000074
:1000A000F6C00000F4C00000F2C00000F0C0000084
:1000B000EEC00000ECC00000EAC00000E8C0000094
:1000C000E6C00000E4C00000E2C00000E0C00000A4
:1000D000DEC00000DCC00000DAC00000D8C00000B4
:1000E000D6C000005A025D024C0250025602940231
:1000F000610265026B026F02730279027D02810266
:10010000940287028B028F02000021002400270046
:100110002A002D0030003300010100000401070116
:100120000A0100000A0B02090C0D0E080703040166
:1001300000000000000000000000000000000000BF
:10014000000000000000000000000000000012118C
:10015000100000000000000000000000000000008F
:10016000000000000000000001021020200808101C
:100170002040102040800201020108040201010217
:1001800004081020408080402010080402018004F0
:10019000020180402010080402010804020101024B
:1001A0000408102040800102040810204080000054
:1001B0002200250028002B002E003100340002010F
:1001C0000000050108010B010505050507050808E4
:1001D0000808020202020A0A0808040404040101D1
:1001E00001010101010103030303030303030407E6
:1001F00007070C0C0C0C0C0C0C0C0202020206067D
:100200000606060606060B0B0B0B0B0B0B0B000072
:1002100020002300260029002C002F0032000001BE
:100220000000030106010901A00F910F11241FBE58
:10023000CFEFD1E2DEBFCDBF00E00CBF24E0ACEEDB
:10024000B2E001C01D92A935B207E1F712E0A0E0CB
:10025000B2E0EEEDF8E200E00BBF02C007900D92B5
:10026000AC3EB107D9F711E0C5E1D1E000E006C02E
:1002700021970109802FFE010E940713C431D10785
:1002800080E00807A9F70E94E4090C945E14B8CE38
:10029000FC01918D828D981761F0828DDF01A80F8E
:1002A000B11D5D968C91928D9F5F9F73928F90E0B0
:1002B00008958FEF9FEF0895FC01918D828D98171F
:1002C00031F0828DE80FF11D858D90E008958FEF5C
:1002D0009FEF0895FC01918D228D892F90E0805C25
:1002E0009F4F821B91098F739927089589E193E0AD
:1002F000F1DF21E0892B09F420E0822F0895FC0131
:10030000848DDF01A80FB11DA35ABF4F2C91848D9E
:1003100090E001968F739927848FA689B7892C93D3
:10032000A089B1898C9180648C93938D848D98136E
:1003300006C00288F389E02D80818F7D8083089537
:10034000EF92FF920F931F93CF93DF93EC0181E025
:10035000888F9B8D8C8D981305C0E889F9898081E1
:1003600085FD23C0F62E0B8D10E00F5F1F4F0F731E
:100370001127E02E8C8DE8120BC00FB607FCFACFC8
:10038000E889F989808185FFF5CFCE01B8DFF2CF0A
:100390008B8DFE01E80FF11DE35AFF4FF0820B8FAA
:1003A000EA89FB898081806207C0EE89FF896083CA
:1003B000E889F98980818064808381E090E0DF9121
:1003C000CF911F910F91FF90EF900895CF93DF93FE
:1003D000EC01888D8823C1F0EA89FB89808185FD45
:1003E00005C0A889B9898C9186FD0EC00FB607FC9F
:1003F000F5CF808185FFF2CFA889B9898C9185FFDF
:10040000EDCFCE017CDFE8CFDF91CF91089580E082
:1004100090E0892B19F06ADF811125C080E090E01F
:10042000892B41F080E090E0892B21F00E940000B0
:1004300081111CC080E090E0892B41F080E090E0C9
:10044000892B21F00E940000811113C080E090E010
:10045000892BA1F080E090E0892B81F00E940000C0
:1004600081110AC008950E940000D8CF0E940000A8
:10047000E1CF0E940000EACF0C940000089590E0C4
:10048000FC013197E231F10508F04EC08827EE58A3
:10049000FF4F8F4F0C940713809180008F7703C01C
:1004A000809180008F7D80938000089580918000EE
:1004B000877FF9CF84B58F7702C084B58F7D84BDE7
:1004C00008958091B0008F7703C08091B0008F7D38
:1004D0008093B0000895809190008F7707C080913D
:1004E00090008F7D03C080919000877F8093900063
:1004F00008958091A0008F7707C08091A0008F7D24
:1005000003C08091A000877F8093A0000895809110
:1005100020018F7707C0809120018F7D03C08091DB
:100520002001877F8093200108951F920F920FB6BC
:100530000F9211240BB60F922F933F934F935F931B
:100540006F937F938F939F93AF93BF93EF93FF939B
:1005500089E193E0D4DEFF91EF91BF91AF919F913C
:100560008F917F916F915F914F913F912F910F905C
:100570000BBE0F900FBE0F901F9018951F920F92F9
:100580000FB60F9211240BB60F922F938F939F9358
:10059000EF93FF93E0912903F0912A038081E0918A
:1005A0002F03F091300382FD12C0908180913203BD
:1005B0008F5F8F7320913303821751F0E0913203E4
:1005C000F0E0E75EFC4F958F8093320301C080819D
:1005D000FF91EF919F918F912F910F900BBE0F90F4
:1005E0000FBE0F901F901895CF93DF93282F30E008
:1005F000F901EE5DFE4F8491F901E859FE4FD49167
:10060000F901E853FE4FC491CC2389F0811137DF03
:10061000EC2FF0E0EE0FFF1FE25FFD4FA591B491CC
:10062000EC91ED2381E090E021F480E002C080E0D5
:1006300090E0DF91CF9108951F93CF93DF93282F00
:1006400030E0F901EE5DFE4F8491F901E859FE4F6B
:10065000D491F901E853FE4FC491CC23C1F0162F79
:1006600081110DDFEC2FF0E0EE0FFF1FE255FE4F82
:10067000A591B4918FB7F894111105C09C91ED2FFD
:10068000E095E92302C0EC91ED2BEC938FBFDF9155
:10069000CF911F910895CF93DF93EC0160E08E819D
:1006A000CBDF61E08E81C8DF60E08E81C5DF8BE843
:1006B00091E00197F1F7DF91CF910895CF93DF9308
:1006C00090E0FC01E859FE4F2491FC01E853FE4FF5
:1006D0008491882361F190E0880F991FFC01E85F05
:1006E000FE4FC591D491FC01E255FE4FA591B49106
:1006F000611109C09FB7F89488812095822388836F
:10070000EC912E230BC0623061F49FB7F8943881CE
:10071000822F809583238883EC912E2B2C939FBF6F
:1007200006C08FB7F894E8812E2B28838FBFDF9106
:10073000CF9108953FB7F8948091150390911603D7
:10074000A0911703B091180326B5A89B05C02F3FB1
:1007500019F00196A11DB11D3FBFBA2FA92F982FE7
:100760008827820F911DA11DB11DBC01CD0142E062
:10077000660F771F881F991F4A95D1F708958F92AA
:100780009F92AF92BF92CF92DF92EF92FF926B0156
:100790007C01D0DF4B015C01C114D104E104F10400
:1007A000E9F0C8DFDC01CB0188199909AA09BB0966
:1007B000883E9340A105B10578F321E0C21AD10823
:1007C000E108F10888EE880E83E0981EA11CB11C98
:1007D000C114D104E104F10421F7DECFFF90EF90C2
:1007E000DF90CF90BF90AF909F908F9008952FB7DC
:1007F000F89460911103709112038091130390910A
:1008000014032FBF08951F920F920FB60F92112459
:100810002F933F938F939F93AF93BF938091110337
:1008200090911203A0911303B0911403309110031F
:1008300023E0230F2D3720F40196A11DB11D05C023
:1008400026E8230F0296A11DB11D2093100380936B
:10085000110390931203A0931303B0931403809198
:10086000150390911603A0911703B09118030196F8
:10087000A11DB11D8093150390931603A093170338
:10088000B0931803BF91AF919F918F913F912F919A
:100890000F900FBE0F901F901895CF92DF92EF929E
:1008A000FF920F931F93CF93DF937C016C0187E03E
:1008B000C80ED11CC0E0D0E0062F10E0B8010C2E0D
:1008C00002C0759567950A94E2F76170F60181910F
:1008D0006F01B2DE2196C430D10581F7C701DF91E7
:1008E000CF911F910F91FF90EF90DF90CF90D3CEDB
:1008F000CF92DF92EF92FF920F931F93CF93DF93EC
:10090000EC01F62E642F8C8197DE8D818F3F11F0E4
:1009100060E092DE8F850F2D10E084FF23C06E0112
:1009200087E0C80ED11CE12CF12CB8010E2C02C0BE
:10093000759567950A94E2F76170F60181916F01F0
:100940007BDEFFEFEF1AFF0A88E0E816F10469F793
:10095000CE01DF91CF911F910F91FF90EF90DF902B
:10096000CF9099CEB80184E0759567958A95E1F7A7
:10097000CE0193DF6F2DCE01DF91CF911F910F91AB
:10098000FF90EF90DF90CF9088CF41E0B1DF81E022
:1009900090E0089540E0ACCFE0E0F2E017868FEF02
:1009A000808B118A128A838B148A158A868B178A08
:1009B00017A280A711A612A683A714A615A686A71C
:1009C00017A60895E0E0F2E08FEF8787808B118A09
:1009D000828B838B148A858B868B178A87A380A74B
:1009E00011A682A783A714A685A786A717A6089590
:1009F0000F931F93CF93DF9302E012E0C0E0D0E0AB
:100A0000F801808131979081319740812091420493
:100A100030914304C217D30750F450E060E070E017
:100A2000BA0155274427592B482BCE0198D18091E4
:100A3000480490914904892B09F0DAD021960D5F82
:100A40001F4FC031D105E1F6DF91CF911F910F917A
:100A50000895E0E0F2E08FEF8787108A118A828B99
:100A6000138A148A858B168A178A87A310A611A663
:100A700082A713A614A685A716A617A6B9CFEF922C
:100A8000FF920F931F93CF93DF93EC01623018F026
:100A90008F8588608F876B8B1C8A80E48D8B80E1CB
:100AA0008E8B80E58F8B61E08C8108DE8D818F3F9E
:100AB00011F061E003DE61E08E8100DE7E0187E0FF
:100AC000E80EF11C00E010E08F8584FD03C084E097
:100AD00090E002C088E090E00817190744F461E054
:100AE000F70181917F01EADD0F5F1F4FEDCF8BE3AF
:100AF0009DE00197F1F760E08C819EDD60E08E81E2
:100B00009BDD8D818F3F11F060E096DD6F8564FD88
:100B100019C063E0CE01C1DE0BE416E4C801019701
:100B2000F1F763E0CE01B9DEC8010197F1F763E0A8
:100B3000CE01B3DE83E592E00197F1F762E0CE01EA
:100B4000ACDE13C06062CE0125DF8BE496E4019732
:100B5000F1F76F856062CE011DDF83E592E00197BA
:100B6000F1F76F856062CE0115DF6F856062CE019F
:100B700011DF84E0888B6CE0CE010CDF61E0CE01F8
:100B800009DF8BE39FE10197F1F782E0898B66E053
:100B9000CE01DF91CF911F910F91FF90EF90FACE90
:100BA000E9E1F3E0A089B18982E08C93A485B58561
:100BB0001C92A685B7858FEC8C93108EA489B5897D
:100BC00086E08C93A289B3898C9180618C93A289F1
:100BD000B3898C9188608C93A289B3898C91806849
:100BE0008C930288F389E02D80818F7D8083089526
:100BF0000F931F93CF93DF93CDB7DEB729970FB62F
:100C0000F894DEBF0FBECDBF95DD00914E0410916C
:100C10004F042091500430915104DC01CB01801B22
:100C2000910BA20BB30B8C329140A105B10560F37F
:100C3000F89480914404909145049A838983E091CB
:100C40004804F0914904DF011196808189879091D1
:100C50004004E0915204F09153048091540499238C
:100C600009F42EC09081982B9887908180958923D4
:100C70008F838F818C8388E08B8358856F81498532
:100C80003B812C8189819A81508347FD252F3A959C
:100C90002083262F39F0441F00C00000608300002D
:100CA00000C0F2CF38E04D9160830000019761F7FA
:100CB000F0935304E093520449873B832C8338C05C
:100CC0009081982B98879081809589238F838F813D
:100CD0008E8388E08D8358856F8149853D812E8183
:100CE00089819A81508347FD252F00C000C0208351
:100CF00000C000C000C000C000C060830000262FFC
:100D00003A9541F0441F000000C000C000C000C080
:100D100000C0E8CF38E04D9100C0608300C001976B
:100D200009F7F0935304E093520449873D832E83DF
:100D30009A8389837894FEDC60934E0470934F0409
:100D4000809350049093510429960FB6F894DEBF17
:100D50000FBECDBFDF91CF911F910F9108958F925C
:100D60009F92AF92BF92CF92DF92EF92FF924B0190
:100D7000AA24BB24E82DC52ED62EE72EFF24FC2D59
:100D8000342F20914704222361F0829E40011124D8
:100D9000E92DC29E60011124FD2D429FD001112436
:100DA0003B2FF0904D04E0904A04A0914804B0918C
:100DB0004904FE1008C0AC01440F551F840F951F55
:100DC0008A0F9B1F14C0880F991F880F991F8A0FC5
:100DD0009B1F472F552766277727DC01AF0DB11DD5
:100DE000222321F0429FA0011124452F4C932091F2
:100DF0004A04DC01A20FB11DEC9320914B04DC01ED
:100E0000A20FB11DFC9320914C04FC01E20FF11DD7
:100E10003083FF90EF90DF90CF90BF90AF909F9086
:100E20008F9008954F925F926F927F928F929F92D0
:100E3000AF92BF92CF92DF92EF92FF926B017C0153
:100E4000B42E9B01AC010E940313882319F060EEBD
:100E500072E027C026013701E89477F82FEF3FEFC3
:100E60004FE75FE7C301B2010E94031381110DC078
:100E70002FEF3FEF4FE75FE7C301B2010E94CB10B6
:100E800018161CF464EE72E00CC02FEF3FEF4FE732
:100E90005FE4C701B6010E94FF1218168CF468EED9
:100EA00072E08EEF93E0FF90EF90DF90CF90BF90D5
:100EB000AF909F908F907F906F905F904F90CFC139
:100EC0002FEF3FEF4FE75FECC701B6010E94CB1059
:100ED00087FDE5CF20E030E0A901C701B6010E94FF
:100EE000CB1087FF11C0E091FE03F091FF0301904A
:100EF000F081E02D6DE28EEF93E019954C01F7FA49
:100F0000F094F7F8F09402C0812C912CA12C60E0B1
:100F100070E080E09FE3AB1441F020E030E040E27D
:100F200051E40E946B12A394F6CF9B01AC01C70160
:100F3000B6010E9407122B013C010E94D3126B01E3
:100F40007C010E94CF109B01AC01C301B2010E9441
:100F500006122B013C012AE0B701A6018EEF93E0B7
:100F600093D17C01E80CF91CBB2069F0E091FE03F1
:100F7000F091FF030190F081E02D6EE28EEF93E09F
:100F80001995E80EF91EDB2CDD2029F120E030E078
:100F900040E251E4C301B2010E9430112B013C0137
:100FA0000E94D3124B01A12CB12C2AE0B501A4015F
:100FB0008EEF93E069D1E80EF91EC501B4010E94DD
:100FC000CF109B01AC01C301B2010E9406122B019C
:100FD0003C01DA94D9CFC701FF90EF90DF90CF901A
:100FE000BF90AF909F908F907F906F905F904F9049
:100FF0000895CF92DF92EF92FF920F931F93CF93BA
:10100000DF936C017A018B01C0E0D0E0CE15DF05E3
:1010100089F0D8016D918D01D601ED91FC9101907F
:10102000F081E02DC6011995892B11F47E0102C0D3
:101030002196ECCFC701DF91CF911F910F91FF90C7
:10104000EF90DF90CF9008950E945A140F931F9352
:1010500090E0FC01E859FE4F6491FC01E853FE4F1B
:10106000E491F0E0EE0FFF1FE25FFD4F8591949158
:1010700000E412E42FE030E0462F61D161157105E4
:101080008105910549F0DC01CB010196A11DB11D3F
:10109000BC01CD019F7003C060E070E0CB011F91E7
:1010A0000F910895AF92BF92CF92DF92EF92FF928D
:1010B0000F931F93CF93DF939ADBDC01CB019C014D
:1010C000AD0160E070E080E090E0A0903804B09066
:1010D0003904C0903A04D0903B04E0903C04F09076
:1010E0003D0400913E0410913F040E940F13ACE3B5
:1010F0000E94211309F300F37ADBDC01CB0180931A
:10110000380490933904A0933A04B0933B041092AE
:101110003C0410923D0410923E0410923F0460E0A3
:1011200080912C0489DA83E090E00197F1F761E087
:1011300080912C0481DA83E290E00197F1F760E07E
:1011400080912C0479DA80912E0480DF0E94CF10E8
:1011500020E030E048E652E40E946B1260933004D5
:10116000709331048093320490933304DF91CF91D4
:101170001F910F91FF90EF90DF90CF90BF90AF90B5
:101180000895643008F063E090911104691710F03D
:101190006FEF690FE62FF0E0E250FC4F9489682F63
:1011A000690F60688EEF93E0F5CBCF93DF93C6E1D4
:1011B000D4E060E0888140DA60E08A813DDA60E076
:1011C0008C813ADA60E08E8137DA60E0888534DA43
:1011D00060E08A8531DA60E08C852EDA60E08E8509
:1011E000DF91CF9129CACF93DF93C6E1D4E060E0CD
:1011F0008C8522DA61E08E851FDA60E088811CDA56
:1012000061E08A8119DA61E0888516DA60E08A8512
:1012100013DA61E08C8110DA60E08E81DF91CF918A
:101220000BCACF93DF93C6E1D4E060E0888504DA8F
:1012300061E08A8501DA60E08C85FED961E08E8507
:10124000FBD960E08881F8D961E08A81F5D960E056
:101250008C81F2D961E08E81DF91CF91EDC961156A
:10126000710579F0FB0101900020E9F73197AF019A
:10127000461B570BDC01ED91FC910280F381E02DC0
:10128000199480E090E008954F925F926F927F9260
:10129000EF92FF920F931F93CF93DF93CDB7DEB7FB
:1012A000A1970FB6F894DEBF0FBECDBF7C01FA0147
:1012B000CB0119A2223008F42AE08E010F5D1F4FE6
:1012C000422E512C612C712CBF01A30192010E946E
:1012D000E411F901CA01015011096A3014F4605D8A
:1012E00001C0695CD8016C93232B242B252B61F75B
:1012F000B801C701B4DFA1960FB6F894DEBF0FBEE8
:10130000CDBFDF91CF911F910F91FF90EF907F9014
:101310006F905F904F9008950F931F93CF93DF933B
:10132000EC019DDF8C016DE572E0CE0198DF800F4E
:10133000911FDF91CF911F910F91089590CFCF9280
:10134000DF92EF92FF920F931F93E82FF92F05C0C2
:10135000015011092109310961F1908196239417F7
:10136000B9F305C0015011092109310911F190812A
:1013700096239413F7CFC12CD12CE12CF12C0AC069
:101380008FEFC81AD80AE80AF80A0C151D052E05B1
:101390003F0579F080818623841791F36C2D7D2D94
:1013A0008E2D9F2D1F910F91FF90EF90DF90CF908A
:1013B000089560E070E080E090E01F910F91FF9051
:1013C000EF90DF90CF900895CF93DF9300D01F92DE
:1013D0001F92CDB7DEB7789484B5826084BD84B5A2
:1013E000816084BD85B5826085BD85B5816085BD20
:1013F00080916E00816080936E00109281008091D8
:10140000810082608093810080918100816080935F
:101410008100809180008160809380008091B10084
:1014200084608093B1008091B00081608093B000AF
:101430008091910082608093910080919100816001
:1014400080939100809190008160809390008091C2
:10145000A10082608093A1008091A10081608093AF
:10146000A1008091A00081608093A0008091210163
:10147000826080932101809121018160809321010C
:101480008091200181608093200180917A008460A6
:1014900080937A0080917A00826080937A008091B4
:1014A0007A00816080937A0080917A0080688093CE
:1014B0007A001092C1001092FA031092FB0310926E
:1014C000FC031092FD031092B8031092B90310921E
:1014D000BA031092BB0368EB7BE080E090E04FD949
:1014E00089E193E09093F9038093F80359DB7FD966
:1014F0006093B8037093B9038093BA039093BB03CE
:101500006EE472E08091F8039091F90317DF6AE0CE
:1015100070E080E090E033D911E01093CC0340DB21
:1015200061E082E0CBD860E083E0C8D882E090E060
:1015300090932D0480932C0483E090E090932F04EB
:1015400080932E048CE090E09093270480932604EF
:1015500084EF809300031093010310920203109212
:1015600003031092040310920503109206031092D5
:10157000070361E08DE0A2D884E090E09093170427
:101580008093160485E090E09093190480931804EA
:1015900087E090E090931B0480931A0486E090E02B
:1015A00090931D0480931C0488E090E090931F04A6
:1015B00080931E0489E090E090932104809320049E
:1015C0008AE090E090932304809322048BE090E0E3
:1015D000909325048093240461E088E06FD861E053
:1015E000809120046BD861E08091220467D861E08B
:1015F0008091240463D861E0809116045FD861E093
:10160000809118045BD861E080911A0457D861E09A
:1016100080911C0453D8EBD8672B682B692B39F4C5
:10162000E6D8623071058105910508F4F8C0DFD86D
:101630006093F0027093F1028093F2029093F302B0
:101640000091EC021091ED022091EE023091EF0238
:10165000601771078207930740F46093EC02709360
:10166000ED028093EE029093EF020091EC02109154
:10167000ED022091EE023091EF026B017C01C01A65
:10168000D10AE20AF30A970186010A3F11052105F2
:10169000310508F4C4C06093EC027093ED028093AE
:1016A000EE029093EF0284EF91E0A0E0B0E080932F
:1016B000C4039093C503A093C603B093C7031092CD
:1016C000C8031092C9031092CA031092CB038091F1
:1016D000BC039091BD03A091BE03B091BF03809362
:1016E000C0039093C103A093C203B093C3037FD8F8
:1016F0006093BC037093BD038093BE039093BF03BC
:1017000076D86093B8037093B9038093BA0390932B
:10171000BB036DD86B017C0160E672E08091F80339
:101720009091F9030BDE2AE041E050E060E070E0C8
:101730008091F8039091F903A7DD67E672E080914C
:10174000F8039091F903FADD2AE0B701A601809130
:10175000F8039091F90398DD69E672E08091F8034F
:101760009091F903EBDD8091BC039091BD03A091B2
:10177000BE03B091BF03B701A601481B590B6A0B0A
:101780007B0B2AE08091F8039091F9037DDD69E6F7
:1017900072E08091F8039091F903D0DD4091BC0391
:1017A0005091BD036091BE037091BF038091C0034F
:1017B0009091C103A091C203B091C303481B590B80
:1017C0006A0B7B0B2AE08091F8039091F9035CDDB2
:1017D0006BE672E08091F8039091F903AFDD07D8D2
:1017E000AB01BC012AE08091F8039091F9034CDD34
:1017F0006DE672E08091F8039091F9038DDD62E06F
:1018000070E080E090E00E94BF030E94F7036093C5
:10181000BC037093BD038093BE039093BF0362E04B
:101820008EEF93E02CD964E772E08EEF93E086DDD3
:101830008091460487FD08C061E00E945E0360E07D
:10184000809146040E941C0381E08093410400E0E3
:1018500010E080914204909143040817190728F47E
:1018600046E950E0BA01C8017ADA809148049091C3
:101870004904892B09F0BCD962E370E080E090E074
:101880000E94BF030F5F1F4F0031110511F788241D
:101890008394912C73E2672E712C0E94F7035B01F5
:1018A0006C019B01A60160E070E080E090E0A090F8
:1018B0000803B0900903C0900A03D0900B03E09096
:1018C0000C03F0900D0300910E0310910F03A7D6A7
:1018D000A0900003B0900103C0900203D0900303D6
:1018E000E0900403F09005030091060310910703B4
:1018F0009FD6F8F08DE00E94F402892B11F060E091
:1019000001C061E08DE00E941C030E94F7038B017F
:101910009C01609308031093090320930A033093FA
:101920000B0310920C0310920D0310920E031092F1
:101930000F0360E080E025DC62E872E08EEF93E068
:10194000FDDC61E080E01DDCADDB42E06BDA89E1CB
:1019500093E00E946A01181619060CF0B4C089E1E0
:1019600093E00E944801182F813611F58091FE0204
:101970009091FF02892B21F49092FF028092FE0247
:101980008091FE029091FF02019739F452E0E52E1A
:10199000F12CF092FF02E092FE028091FE02909103
:1019A000FF020297B1F41092FF021092FE0211C0E2
:1019B000843679F48091FC029091FD02892B29F400
:1019C0009092FD028092FC0204C01092FD021092DF
:1019D000FC028091FE029091FF02892BA9F460E045
:1019E00080E0CFDB173421F01C3411F0133531F4D3
:1019F0006DE872E08EEF93E0A1DC65C01235C1F3B3
:101A0000123409F060C0F4CF173411F40ADC5BC063
:101A10001C3411F4E8DB57C0133511F4C6DB53C096
:101A2000123539F560E080911A040E941C0361E0D0
:101A300080911C040E941C0360E080911A040E94A3
:101A40001C0361E080911C040E941C0361E08091F2
:101A500022040E941C0360E0809124040E941C0365
:101A600061E0809116040E941C0360E080911804DC
:101A700028C0123441F561E080911E040E941C03CD
:101A800060E0809120040E941C0361E080912204A8
:101A90000E941C0360E0809124040E941C0361E00A
:101AA000809116040E941C0360E0809118040E943B
:101AB0001C0361E080911A040E941C0360E0809185
:101AC0001C040E941C0360E088E05BDB2091FE02A6
:101AD0003091FF028091FC029091FD02223031058D
:101AE00031F5892B91F4DEDA20E030E048E452E46D
:101AF00052D318160CF406C2D5DA20E030E040E0EC
:101B000050E47DD587FFFBC1FDC1CCDA20E030E099
:101B100048E452E440D318160CF457C0C3DA20E06E
:101B200030E040E050E46BD587FFE9C14EC0232B85
:101B300031F5892B91F4B6DA20E030E048E452E444
:101B40002AD318160CF44EC0ADDA20E030E040E0A5
:101B500050E455D587FFCAC145C0A4DA20E030E083
:101B600048E453E418D318160CF44AC09BDA20E07A
:101B700030E040EA51E443D587FFB8C141C0892B2A
:101B800091F490DA20E030E048E452E404D31816EF
:101B90000CF4B8C187DA20E030E040E050E42FD503
:101BA00087FFA4C1AFC17EDA20E030E048E453E40F
:101BB000F2D218160CF4ACC175DA20E030E040EA3D
:101BC00051E41DD587FF92C1A3C16CDA20E030E05B
:101BD00046E953E414D587FD0EC00E94CC0462E9A7
:101BE00072E01BC05FDA20E030E048EC52E407D539
:101BF00087FF7AC116DB0E94E2046BE972E00DC038
:101C000051DA20E030E046E953E4F9D487FF6CC1B3
:101C100008DB0E94E20463EA72E08EEF93E08EDB61
:101C20006EE572E089E193E077DB1091260419827A
:101C30001A821B821C821D8261E0812F0E945E033A
:101C400060E0812F0E941C0362E170E080E090E080
:101C50000E94BF0361E0812F0E941C038BE990E08A
:101C60000197F1F760E0812F0E945E0341E1E42ECD
:101C700047E2F42E812F0E94F402892B39F421E0EF
:101C8000E21AF108B9F78EEF9FEF72C031E1E32E4F
:101C900037E2F32E812F0E94F402019729F481E0AC
:101CA000E81AF108B9F7EFCF28E2E22EF12C07E0AD
:101CB000D12C91E1A92E97E2B92E812F0E94F40236
:101CC000892B29F491E0A91AB108B9F7DCCF0E9459
:101CD0009A031B012C0181E1A82E87E2B82E812FE7
:101CE0000E94F402019729F421E0A21AB108B9F781
:101CF000CACF0E949A03DC01CB0182199309A4097F
:101D0000B5098997A105B10578F0E1E0F0E0EC0FA5
:101D1000FD1FED0DF11D2081C401002E01C0880FB3
:101D20000A94EAF7822B8083011103C0D39407E061
:101D300001C0015081E0E81AF10809F0BACF8981A9
:101D4000282F30E030932904209328042B81422F40
:101D500050E050932B0440932A04280F81E090E038
:101D60003D81321302C080E090E091958195910908
:101D70008F3F2FEF920729F0892B31F46AEA72E046
:101D800005C064EB72E002C06AEC72E089E193E0A6
:101D9000C3DA60912A0470912B04072E000C880B83
:101DA000990BFFD16B017C016093F8027093F902EB
:101DB0008093FA029093FB026091280470912904A9
:101DC000072E000C880B990BECD16093F4027093F2
:101DD000F5028093F6029093F70261E080E0D1D99A
:101DE00020E030E0A901C701B60109D418160CF0B3
:101DF00072C020E030E048E452E4C701B601CBD124
:101E000087FF69C00E94F7035B016C019B01A6017B
:101E100060E070E080E090E0A0903804B090390479
:101E2000C0903A04D0903B04E0903C04F0903D0414
:101E300000913E0410913F04F2D3ACE302D411F3BD
:101E400008F30E94F7038B019C0160933804109300
:101E5000390420933A0430933B0410923C041092CE
:101E60003D0410923E0410923F0460E080912C04E7
:101E70000E941C0383E090E00197F1F761E08091FC
:101E80002C040E941C03C3010197F1F760E08091CC
:101E90002C040E941C0380912E04D8D880D120E00D
:101EA00030E048E652E417D3609330047093310475
:101EB000809332049093330442E00E94120761E061
:101EC00088E05FD96091F8027091F9028091FA027E
:101ED0009091FB0201C0E6D842E00E9412070E94E6
:101EE000F8040E940702D9CC9CD977CE5ED97BD961
:101EF00060E971E080E090E00E94BF0356D90E9443
:101F0000290589CECFD820E030E048EC52E462CEFB
:101F1000C9D820E030E046E953E471D387FF5DCEB5
:101F200078CE8091480490914904009709F02AD412
:101F30008091460487FD03C060E00C945E03089521
:101F400010921C0310921B0388EE93E0A0E0B0E017
:101F500080931D0390931E03A0931F03B09320034F
:101F60008AE392E090931A038093190385EC90E042
:101F7000909326038093250384EC90E090932803AC
:101F80008093270380EC90E090932A0380932903A9
:101F900081EC90E090932C0380932B0382EC90E0F3
:101FA00090932E0380932D0386EC90E09093300362
:101FB00080932F0310923203109233031092340354
:101FC000109235031092BC031092BD031092BE0311
:101FD0001092BF031092C0031092C1031092C2036B
:101FE0001092C3031092C4031092C5031092C6034B
:101FF0001092C7031092C8031092C9031092CA032B
:102000001092CB03109241041092470410924E0498
:1020100010924F04109250041092510481E080936A
:102020004D0480934A0410924B0492E090934C0428
:102030008093400480E390E09093450480934404AF
:102040000CD39093490480934804009761F020E3F7
:10205000FC0111922A95E9F780E190E09093430406
:102060008093420408C010924504109244041092D8
:102070004304109242048DE0809346048091410411
:10208000882341F061E08DE00E945E0360E08DE016
:102090000E941C03E5EDF1E0E491F0E0EE0FFF1F7C
:1020A000E255FE4F8591949190935304809352048E
:1020B000E5E7F1E0E491E0935404109238041092C3
:1020C000390410923A0410923B0410923C0410928E
:1020D0003D0410923E0410923F0484E090E09093FF
:1020E00017048093160485E090E090931904809380
:1020F000180487E090E090931B0480931A0486E014
:1021000090E090931D0480931C0488E090E09093ED
:102110001F0480931E0489E090E090932104809333
:1021200020048AE090E090932304809322048BE0C3
:1021300090E090932504809324041092010410925F
:1021400000048AE492E09093FF038093FE0386E309
:10215000809302048FEF8093030487E38093040449
:1021600088E38093050489E3809306048AE38093DF
:1021700007048BE3809308041092090410920A0468
:1021800010920B0410920C0410920D0461E08EEF7B
:1021900093E00C943F0540D008F481E00895E89462
:1021A00009C097FB3EF490958095709561957F4F9F
:1021B0008F4F9F4F9923A9F0F92F96E9BB2793954D
:1021C000F695879577956795B795F111F8CFFAF45D
:1021D000BB0F11F460FF1BC06F5F7F4F8F4F9F4F8E
:1021E00016C0882311F096E911C0772321F09EE8EC
:1021F000872F762F05C0662371F096E8862F70E052
:1022000060E02AF09A95660F771F881FDAF7880F2B
:102210009695879597F90895990F0008550FAA0B81
:10222000E0E8FEEF16161706E807F907C0F01216E9
:102230001306E407F50798F0621B730B840B950BEC
:1022400039F40A2661F0232B242B252B21F4089541
:102250000A2609F4A140A6958FEF811D811D0895DE
:102260000BD078C069D028F06ED018F0952309F013
:102270005AC05FC01124A2C07ED0A0F3959FD1F3B5
:10228000950F50E0551F629FF001729FBB27F00D24
:10229000B11D639FAA27F00DB11DAA1F649F662779
:1022A000B00DA11D661F829F2227B00DA11D621FC8
:1022B000739FB00DA11D621F839FA00D611D221F82
:1022C000749F3327A00D611D231F849F600D211D66
:1022D000822F762F6A2F11249F5750408AF0E1F009
:1022E00088234AF0EE0FFF1FBB1F661F771F881F52
:1022F00091505040A9F79E3F510570F014C05EC048
:102300005F3FECF3983EDCF3869577956795B7953C
:10231000F795E7959F5FC1F7FE2B880F911D969566
:10232000879597F9089597F99F6780E870E060E0D6
:1023300008959FEF80EC089500240A94161617065E
:1023400018060906089500240A94121613061406A6
:1023500005060895092E0394000C11F4882352F009
:10236000BB0F40F4BF2B11F460FF04C06F5F7F4FC1
:102370008F4F9F4F089557FD9058440F551F59F0A8
:102380005F3F71F04795880F97FB991F61F09F3F62
:1023900079F087950895121613061406551FF2CF8B
:1023A0004695F1DF08C0161617061806991FF1CFDB
:1023B00086957105610508940895E894BB27662702
:1023C0007727CB0197F90895A1E21A2EAA1BBB1B10
:1023D000FD010DC0AA1FBB1FEE1FFF1FA217B307F1
:1023E000E407F50720F0A21BB30BE40BF50B661F07
:1023F000771F881F991F1A9469F7609570958095CB
:1024000090959B01AC01BD01CF0108955058BB27A9
:10241000AA270ED09FCF90DF30F095DF20F031F467
:102420009F3F11F41EF485CF0EF4E095E7FB7BCFC0
:10243000E92FA1DF80F3BA176207730784079507B6
:1024400018F071F49EF5B9CF0EF4E0950B2EBA2F6B
:10245000A02D0B01B90190010C01CA01A0011124AA
:10246000FF27591B99F0593F50F4503E68F11A1656
:10247000F040A22F232F342F4427585FF3CF4695E7
:1024800037952795A795F0405395C9F77EF41F1609
:10249000BA0B620B730B840BBAF09150A1F0FF0FD3
:1024A000BB1F661F771F881FC2F70EC0BA0F621FBF
:1024B000731F841F48F4879577956795B795F795AF
:1024C0009E3F08F0B3CF9395880F08F09927EE0F41
:1024D0009795879508950CD03DCF35DF40F02CDFE0
:1024E00030F021F45F3F19F01ECF511167CF21CF9B
:1024F00042DF98F39923C9F35523B1F3951B550B8C
:10250000BB27AA2762177307840738F09F5F5F4FC6
:10251000220F331F441FAA1FA9F333D00E2E3AF007
:10252000E0E830D091505040E695001CCAF729D021
:10253000FE2F27D0660F771F881FBB1F2617370770
:102540004807AB07B0E809F0BB0B802DBF01FF27A0
:1025500093585F4F2AF09E3F510568F0E4CE2ECF8E
:102560005F3FECF3983EDCF3869577956795B795DA
:10257000F7959F5FC9F7880F911D9695879597F9F5
:102580000895E1E0660F771F881FBB1F621773076E
:102590008407BA0720F0621B730B840BBA0BEE1F83
:1025A00088F7E0950895EFDE88F09F5790F0B92FF7
:1025B0009927B751A0F0D1F0660F771F881F991F98
:1025C0001AF0BA95C9F712C0B13081F0F6DEB1E069
:1025D0000895F3CE672F782F8827B85F39F0B93F79
:1025E000CCF3869577956795B395D9F73EF490959A
:1025F0008095709561957F4F8F4F9F4F08950CDEAA
:1026000008F48FEF089508DE880B990B0895EE0FFC
:10261000FF1F881F8BBF0790F691E02D19942A1990
:102620003B094C095D096E097F09800B910B0895E8
:102630002A153B054C055D056E057F058007910752
:1026400008950024A7FD00942A1730054005500581
:1026500060057005800590050895CF93DF93823063
:10266000910510F482E090E0E0915704F091580455
:1026700020E030E0C0E0D0E0309711F1408151819E
:1026800048175907C0F04817590761F482819381B0
:10269000209719F09B838A832BC0909358048093D2
:1026A000570426C02115310519F04217530718F4B5
:1026B0009A01BE01DF01EF010280F381E02DDCCF42
:1026C0002115310509F1281B390B2430310590F40F
:1026D00012968D919C9113976115710521F0FB0164
:1026E0009383828304C09093580480935704FD0120
:1026F000329644C0FD01E20FF31F81939193225063
:1027000031092D933C933AC02091550430915604E1
:10271000232B41F42091320230913302309356043E
:10272000209355042091300230913102211531055A
:1027300041F42DB73EB74091340250913502241B2D
:10274000350BE0915504F0915604E217F307A0F41D
:102750002E1B3F0B2817390778F0AC014E5F5F4FF7
:102760002417350748F04E0F5F1F509356044093CF
:1027700055048193919302C0E0E0F0E0CF01DF9136
:10278000CF9108950F931F93CF93DF93009709F490
:102790008CC0FC0132971382128200915704109171
:1027A00058040115110581F420813181820F931F96
:1027B00020915504309156042817390779F5F09384
:1027C0005604E093550471C0D80140E050E0AE17C4
:1027D000BF0750F412962D913C911397AD0121152E
:1027E000310509F1D901F3CF9D01DA013383228349
:1027F00060817181860F971F8217930769F4EC013E
:1028000028813981260F371F2E5F3F4F3183208368
:102810008A819B8193838283452B29F4F09358040A
:10282000E093570442C01396FC93EE931297ED0188
:10283000499159919E01240F351FE217F30771F456
:1028400080819181840F951F029611969C938E939F
:102850008281938113969C938E931297E0E0F0E02F
:10286000D80112968D919C911397009719F0F80159
:102870008C01F6CF8D919C9198012E5F3F4F820F76
:10288000931F20915504309156042817390769F495
:10289000309729F4109258041092570402C0138202
:1028A00012821093560400935504DF91CF911F912B
:1028B0000F91089581E090E0F89400C011E0C5E127
:1028C000D1E000E005C0802FFE01A1DE2196011DB0
:0E28D000C631D10780E00807B1F7F894FFCFBA
:1028DE00000000000000000000000000000000FFEB
:1028EE00FFFFFFFFFFFFFFFFFFFFFFFFFFFFFFFFEA
:1028FE00FFFFFFFFFFFFFFFFFFFFFFFFFFFFFFFFDA
:10290E0000005904800000000000A001F9076A01D0
:10291E0048015C01E60100000000C504F907564DB0
:10292E004450565F317C315F564D4450560D0A006F
:10293E00564D4450455F003A323A007C005F564D8A
:10294E004450450053797374656D20526561647906
:10295E0021002020202020202020202000417574DE
:10296E006F005365637572697479004A75737420CC
:10297E00476F00576172696E670044485431312DBC
:10298E002D4F4B0044485431312D2D436865636BF8
:10299E0073756D206572726F720044485431312D1B
:1029AE002D54696D65206F7574206572726F72009B
:0C29BE006E616E00696E66006F76660048
:020000023000CC
:10E000000D9489F10D94B2F10D94B2F10D94B2F129
:10E010000D94B2F10D94B2F10D94B2F10D94B2F1F0
:10E020000D94B2F10D94B2F10D94B2F10D94B2F1E0
:10E030000D94B2F10D94B2F10D94B2F10D94B2F1D0
:10E040000D94B2F10D94B2F10D94B2F10D94B2F1C0
:10E050000D94B2F10D94B2F10D94B2F10D94B2F1B0
:10E060000D94B2F10D94B2F10D94B2F10D94B2F1A0
:10E070000D94B2F10D94B2F10D94B2F10D94B2F190
:10E080000D94B2F10D94B2F10D94B2F10D94B2F180
:10E090000D94B2F10D94B2F10D94B2F10D94B2F170
:10E0A0000D94B2F10D94B2F10D94B2F10D94B2F160
:10E0B0000D94B2F10D94B2F10D94B2F10D94B2F150
:10E0C0000D94B2F10D94B2F10D94B2F10D94B2F140
:10E0D0000D94B2F10D94B2F10D94B2F10D94B2F130
:10E0E0000D94B2F141546D656761323536300041AF
:10E0F000726475696E6F206578706C6F72657220DE
:10E1000073746B3530305632206279204D4C530099
:10E11000426F6F746C6F616465723E004875683F52
:10E1200000436F6D70696C6564206F6E203D200048
:10E130004350552054797065202020203D20005FF9
:10E140005F4156525F415243485F5F3D2000415658
:10E1500052204C696243205665723D20004743437C
:10E160002056657273696F6E203D20004350552024
:10E1700049442020202020203D20004C6F7720663D
:10E18000757365202020203D20004869676820665F
:10E190007573652020203D200045787420667573D6
:10E1A00065202020203D20004C6F636B2066757336
:10E1B000652020203D20004D617220203720323024
:10E1C000313300312E362E3800342E332E350056A2
:10E1D00023202020414444522020206F7020636F70
:10E1E00064652020202020696E73747275637469E1
:10E1F0006F6E2061646472202020496E74657272B3
:10E20000757074006E6F20766563746F7200726A49
:10E210006D702020006A6D70200057686174207056
:10E220006F72743A00506F7274206E6F7420737541
:10E2300070706F72746564004D7573742062652030
:10E2400061206C6574746572002000577269747483
:10E25000696E672045450052656164696E672045B7
:10E26000450045452065727220636E743D00504F35
:10E27000525400303D5A65726F2061646472003FF1
:10E280003D43505520737461747300403D454550C3
:10E29000524F4D207465737400423D426C696E6B41
:10E2A000204C454400453D44756D70204545505215
:10E2B0004F4D00463D44756D7020464C415348001B
:10E2C000483D48656C70004C3D4C69737420492F83
:10E2D0004F20506F72747300513D51756974005234
:10E2E0003D44756D702052414D00563D73686F7707
:10E2F00020696E7465727275707420566563746FF0
:10E30000727300593D506F727420626C696E6B00BD
:10E310002A0011241FBECFEFD1E2DEBFCDBF01E046
:10E320000CBF12E0A0E0B2E0EEE1FDEF03E00BBFB6
:10E3300002C007900D92A030B107D9F712E0A0E01B
:10E34000B2E001C01D92AE30B107E1F70F9460F367
:10E350000D948DFE01E20EBF0FEF0DBF11241FBE05
:10E360000D9460F30D9400F020E030E040ED57E0B4
:10E3700005C0FA013197F1F72F5F3F4F2817390792
:10E38000C0F308959C01260F311DC901A0E0B0E043
:10E390002F5F3F4FABBFFC018791882361F08093D3
:10E3A000C6008091C00086FFFCCF8091C0008064D1
:10E3B0008093C000EACF08958DE08093C6008091DD
:10E3C000C00086FFFCCF8091C00080648093C000B5
:10E3D0008AE08093C6008091C00086FFFCCF8091C8
:10E3E000C00080648093C00008950F94C2F10F9420
:10E3F000DCF10895FC019081992359F09093C600B7
:10E400008091C00086FFFCCF8091C0008064809323
:10E41000C0003196992379F70895282F982F929567
:10E420009F70892F805D8A3308F0895F8093C600D2
:10E430008091C00086FFFCCF8091C00080648093F3
:10E44000C000822F8F70982F905D9A3308F0995FEB
:10E450009093C6008091C00086FFFCCF8091C000E1
:10E4600080648093C00008959C01FB01853691056E
:10E470001CF46330710594F0C90164E670E00F94F8
:10E480002EFE605D7F4F6093C6008091C00086FFC6
:10E49000FCCF8091C00080648093C0002B30310598
:10E4A00014F43297B4F0C90164E670E00F942EFEC4
:10E4B0006AE070E00F942EFE605D7F4F6093C600AF
:10E4C0008091C00086FFFCCF8091C0008064809363
:10E4D000C000C9016AE070E00F942EFEC0968093E0
:10E4E000C6008091C00086FFFCCF8091C000806490
:10E4F0008093C00008951F93182F8EE692EE60E07F
:10E500000F94C2F11093C6008091C00086FFFCCF2B
:10E510008091C00080648093C0000F94DCF11F9153
:10E5200008952F923F924F925F926F927F928F92B7
:10E530009F92AF92BF92CF92DF92EF92FF920F9392
:10E540001F93DF93CF93CDB7DEB762970FB6F894E2
:10E55000DEBF0FBECDBF382E622ECA01DB015C01CB
:10E560006D01772420E2222E2E010894411C511CBB
:10E570008BC081E0A81680E0B80681E0C80680E084
:10E58000D80628F0C601AA27BB270F940DF2BB2797
:10E59000AD2D9C2D8B2D0F940DF28A2D0F940DF225
:10E5A0002092C6008091C00086FFFCCF8091C00001
:10E5B00080648093C0009DE29093C6008091C0006B
:10E5C00086FFFCCF8091C00080648093C0002092C1
:10E5D000C6008091C00086FFFCCF8091C00080649F
:10E5E0008093C00019828601750188249924A1E0D6
:10E5F0003A1651F03A1620F0B2E03B1661F409C029
:10E600000BBFF701779007C0C7010F9477FE782EF4
:10E6100002C0F7017080872D0F940DF22092C60082
:10E620008091C00086FFFCCF8091C0008064809301
:10E63000C000872D8052F401EF70F0708F3520F408
:10E64000E40DF51D708204C0E40DF51D8EE280839B
:10E650000894E11CF11C011D111D0894811C911CE2
:10E6600090E18916910409F0C2CF80E190E0A0E02A
:10E67000B0E0A80EB91ECA1EDB1E198AC2010F9493
:10E68000FAF10F94DCF16A94662009F072CF629679
:10E690000FB6F894DEBF0FBECDBFCF91DF911F91B3
:10E6A0000F91FF90EF90DF90CF90BF90AF909F9031
:10E6B0008F907F906F905F904F903F902F90089534
:10E6C0002F923F924F925F926F927F928F929F9282
:10E6D000AF92BF92CF92DF92EF92FF920F931F9370
:10E6E000DF93CF93CDB7DEB7CD53D1400FB6F894BB
:10E6F000DEBF0FBECDBF01E20EBF0FEF0DBF94B75F
:10E70000F894A89514BE80916000886180936000A1
:10E7100010926000789493FF05C0E0910002F091A0
:10E7200001021995279A2F9A8091C00082608093E8
:10E73000C00080E18093C40088E18093C1000000A4
:10E74000EE24FF24870144E0A42EB12CCC24DD2448
:10E7500024C0C5010197F1F70894E11CF11C011DCB
:10E76000111D21E2E2162EE4F20620E0020720E06D
:10E77000120718F031E0C32ED12CC801B70127ECE5
:10E780003BE140E050E00F9441FE611571058105C9
:10E79000910519F485B1805885B98091C00087FD35
:10E7A00003C0C114D104A9F2A6014F5F5F4FC25E3E
:10E7B000DE4F59834883CE51D140C25EDE4F8881FF
:10E7C0009981CE51D140019711F00D9410FEC05D9A
:10E7D000DE4F19821882C053D14060E0C15DDE4F28
:10E7E0001882CF52D14088249924C35DDE4F19820C
:10E7F0001882CD52D140C05EDE4F188219821A8233
:10E800001B82C052D140CE5CDE4F188219821A8220
:10E810001B82C253D140EE24FF2487010BBFF701B6
:10E8200007911691C45CDE4F19830883CC53D14005
:10E830000D940BFEC25EDE4F28813981CE51D1404E
:10E840002130310509F52091C600C25EDE4F1982E4
:10E850001882CE51D14022C02F5F3F4F4F4F5F4FA4
:10E86000213082E138078AE7480780E0580780F0C6
:10E87000C45CDE4FE881F981CC53D140EF5FFF4F9C
:10E8800019F0EE27FF27099420E030E040E050E047
:10E890008091C00087FFE0CF2091C600C35DDE4FAE
:10E8A00048815981CD52D1404F5F5F4FC35DDE4FEC
:10E8B00059834883CD52D140213209F063C64A3092
:10E8C000510508F05FC60894811C911C53E0851621
:10E8D000910409F059C600E010E018C081E280936D
:10E8E000C6008091C00086FFFCCF8091C00080648C
:10E8F0008093C0002F5F3F4F2931310579F70F9486
:10E90000DCF10F5F1F4F0530110519F020E030E0FA
:10E91000E5CF10920A0210920B0210920C02109294
:10E920000D02109206021092070210920802109235
:10E930000902109202021092030210920402109235
:10E9400005028FEE90EE60E00F94F5F180E191EE1C
:10E9500060E00F94C2F18091C00087FFFCCF9091DE
:10E96000C600903608F09F759032B8F09093C600BC
:10E970008091C00086FFFCCF8091C00080648093AE
:10E98000C000A0E2A093C6008091C00086FFFCCF2B
:10E990008091C00080648093C000983409F4D7C18E
:10E9A0009934B8F4923409F459C1933458F490333B
:10E9B00019F1903308F4E3C59F33A1F1903409F0C5
:10E9C000DEC5BDC0953409F470C1963409F0D7C5D1
:10E9D00098C1923509F42BC2933538F49C3409F46C
:10E9E000F5C1913509F0CBC518C2963509F445C279
:10E9F000993509F0C4C567C483E792EE62E00F94CD
:10EA0000F5F110920602109207021092080210927D
:10EA1000090210920A0210920B0210920C0210923C
:10EA20000D0213C18FE792EE62E00F94F5F18FEEC5
:10EA300090EE60E00F94F5F181E291EE60E00F94CA
:10EA4000C2F187EB91EE60E00F94F5F180E391EE77
:10EA500060E00F94C2F184EE90EE60E00F94F5F167
:10EA60008FE391EE60E00F94C2F186E090E061E008
:10EA700070E00F9434F20F94DCF18DE591EE60E0DC
:10EA80000F94C2F189EC91EE60E00F94F5F18EE401
:10EA900091EE60E00F94C2F183EC91EE60E00F9490
:10EAA000F5F18CE691EE60E00F94C2F18EE10F94E7
:10EAB0000DF288E90F940DF281E00F940DF20F949E
:10EAC000DCF18BE791EE60E00F94C2F119E0E0E039
:10EAD000F0E010935700E4918E2F0F940DF20F94F5
:10EAE000DCF18AE891EE60E00F94C2F1E3E0F0E03F
:10EAF00010935700E4918E2F0F940DF20F94DCF1D8
:10EB000089E991EE60E00F94C2F1E2E0F0E0109349
:10EB10005700E4918E2F0F940DF20F94DCF188EAE8
:10EB200091EE60E00F94C2F1E1E0F0E01093570045
:10EB30001491812F0F940DF20F94DCF107CF8BE825
:10EB400092EE62E00F94F5F18BE492EE60E00F94A8
:10EB5000F5F10F94DCF100E010E019C0C8016F2D51
:10EB60000F947FFEFF2031F489E492EE60E00F9471
:10EB7000C2F10BC0F092C6008091C00086FFFCCFAE
:10EB80008091C00080648093C0000F5F1F4FC80158
:10EB900081519F41A0E0B0E0ABBFFC01F790BAE229
:10EBA000FB1621F0E2E000301E07C1F60F94DCF105
:10EBB0000F94DCF187E592EE60E00F94F5F10F948D
:10EBC000DCF1CC24DD2400E010E01EC0C8010F946D
:10EBD00077FEF82E882331F489E492EE60E00F94FA
:10EBE000C2F10BC08093C6008091C00086FFFCCFAD
:10EBF0008091C00080648093C000FE1419F00894D6
:10EC0000C11CD11C0F5F1F4FC80181519F41A0E063
:10EC1000B0E0ABBFFC01E790FAE2EF1621F022E092
:10EC20000030120799F60F94DCF10F94DCF182E6C4
:10EC300092EE60E00F94C2F1C60161E070E00F94C3
:10EC400034F20F94DCF10F94DCF110920202109276
:10EC50000302109204021092050278CE89E992EE26
:10EC600062E00F94F5F1279A2F9A16C02F9880E052
:10EC700090E0E0EDF7E03197F1F7019684369105E9
:10EC8000C1F72F9A80E090E0E0EDF7E03197F1F7DF
:10EC9000019684369105C1F78091C00087FFE6CFC9
:10ECA0008091C00087FFFCCF64C485EA92EE62E0E9
:10ECB0000F94F5F140910202509103026091040219
:10ECC0007091050281E020E10F9491F2809102029F
:10ECD00090910302A0910402B091050280509F4FD1
:10ECE000AF4FBF4F8093020290930302A0930402A0
:10ECF000B093050280509041A040B04008F426CE69
:10ED0000A4CF83EB92EE62E00F94F5F140910602FE
:10ED100050910702609108027091090280E020E1A1
:10ED20000F9491F28091060290910702A09108023F
:10ED3000B091090280509F4FAF4FBF4F80930602A2
:10ED400090930702A0930802B0930902FFCD80ECD4
:10ED500092EE62E00F94F5F183E792EE60E00F949B
:10ED6000F5F18FE792EE60E00F94F5F18BE892EE0B
:10ED700060E00F94F5F189E992EE60E00F94F5F10F
:10ED800085EA92EE60E00F94F5F183EB92EE60E09D
:10ED90000F94F5F180EC92EE60E00F94F5F187ECC2
:10EDA00092EE60E00F94F5F188ED92EE60E00F9442
:10EDB000F5F18FED92EE60E00F94F5F18AEE92EEB0
:10EDC00060E00F94F5F183E093EEBDCD87EC92EE19
:10EDD00062E00F94F5F181E40F947BF282E40F94EA
:10EDE0007BF283E40F947BF284E40F947BF285E45E
:10EDF0000F947BF286E40F947BF287E40F947BF20E
:10EE000088E40F947BF28AE40F947BF28BE40F94F6
:10EE10007BF28CE40F947BF299CD88ED92EE62E068
:10EE20000F94F5F1772473948824992409C48FED05
:10EE300092EE62E00F94F5F140910A0250910B02BC
:10EE400060910C0270910D0282E020E10F9491F22A
:10EE500080910A0290910B02A0910C02B0910D02D8
:10EE600080509F4FAF4FBF4F80930A0290930B0289
:10EE7000A0930C02B0930D0269CD8AEE92EE62E08F
:10EE80000F94F5F184EE90EE60E00F94F5F18FECC5
:10EE900091EE60E00F94F5F1662477244301CC5D98
:10EEA000DE4F19821882C452D140D401C301B695F5
:10EEB000A79597958795CA5DDE4F88839983AA8326
:10EEC000BB83C652D140CC5DDE4FA881B981C4520C
:10EED000D1401196CC5DDE4FB983A883C452D14096
:10EEE000CD0162E070E00F9434F2B0E2B093C6005E
:10EEF0008091C00086FFFCCF8091C0008064809329
:10EF0000C000EDE2E093C6008091C00086FFFCCF18
:10EF10008091C00080648093C000F0E2F093C6004E
:10EF20008091C00086FFFCCF8091C00080648093F8
:10EF3000C000CA5DDE4FE880F9800A811B81C6529D
:10EF4000D140BB27A12F902F8F2D0F940DF2CA5DBA
:10EF5000DE4F8881C652D1400F940DF2B0E2FB2EF5
:10EF6000F092C6008091C00086FFFCCF8091C00067
:10EF700080648093C0000DE30093C6008091C000C0
:10EF800086FFFCCF8091C00080648093C00010E2B7
:10EF90001093C6008091C00086FFFCCF8091C00016
:10EFA00080648093C0008BBEF3012791C65DDE4F65
:10EFB0002883CA52D140A22EBB24CC24DD2408943D
:10EFC000611C711C811C911C8BBEF3018791282E42
:10EFD0003324442455240894611C711C811C911C09
:10EFE0008BBEF3013791C55DDE4F3883CB52D140E4
:10EFF0000894611C711C811C911C8BBEF30147910C
:10F00000C45DDE4F4883CC52D140ADEFEA2EAFEF66
:10F01000FA2EAFEF0A2FAFEF1A2F6E0C7F1C801E57
:10F02000911E142D032DF22CEE24EA0CFB1C0C1D5A
:10F030001D1D0F940DF220E22093C6008091C000A8
:10F0400086FFFCCF8091C00080648093C000C65DC5
:10F05000DE4F8881CA52D1400F940DF230E23093D6
:10F06000C6008091C00086FFFCCF8091C000806404
:10F070008093C000C45DDE4F8881CC52D1400F9494
:10F080000DF240E24093C6008091C00086FFFCCFA5
:10F090008091C00080648093C000C55DDE4F888190
:10F0A000CB52D1400F940DF250E25093C6008091A4
:10F0B000C00086FFFCCF8091C00080648093C000B8
:10F0C0008FEFE8168FEFF80680E0080780E018075A
:10F0D00031F484E092EE60E00F94C2F1DFC0D80119
:10F0E000C7018070907CA070B0708050904CA040A0
:10F0F000B040D1F52FEF3FE340E050E0E222F322B1
:10F1000004231523CA5DDE4FA880B980CA80DB8046
:10F11000C652D140AE0CBF1CC01ED11EAA0CBB1CD7
:10F12000CC1CDD1C8EE092EE60E00F94C2F1BB2798
:10F13000A12F902F8F2D0F940DF28E2D0F940DF285
:10F1400030E23093C6008091C00086FFFCCF8091F2
:10F15000C00080648093C0004EE34093C60080915D
:10F16000C00086FFFCCF87C08EE09EEFA0E0B0E03D
:10F17000E822F9220A231B239CE0E91694E9F90608
:10F1800090E0090790E0190709F088C0C45DDE4FE0
:10F19000A881CC52D140EA2EFF2400E010E0102FCD
:10F1A0000F2DFE2CEE24C55DDE4FB881CB52D14031
:10F1B000EB0EF11C011D111DD601C501817090706F
:10F1C000A070B070DC0199278827E80EF91E0A1F8D
:10F1D0001B1F20EF30E040E050E0A222B322C42207
:10F1E000D52241E1AA0CBB1CCC1CDD1C4A95D1F7F1
:10F1F000EA0CFB1C0C1D1D1D81E090E0A0E0B0E0BE
:10F20000282239224A225B2235E1220C331C441C7D
:10F21000551C3A95D1F7E20CF31C041D151D57013E
:10F220006801AA0CBB1CCC1CDD1C85E192EE60E0E1
:10F230000F94C2F1C801AA27BB270F940DF2BB2778
:10F24000A12F902F8F2D0F940DF28E2D0F940DF274
:10F2500090E29093C6008091C00086FFFCCF809121
:10F26000C00080648093C000AEE3A093C60080918C
:10F27000C00086FFFCCF8091C00080648093C000F6
:10F28000C601AA27BB270F940DF2BB27AD2D9C2DDD
:10F290008B2D0F940DF28A2D0F940DF20F94DCF14B
:10F2A000CC5DDE4FE881F981C452D140F99709F471
:10F2B0004DCBF4E0EF2EF12C012D112D6E0C7F1CA7
:10F2C000801E911EF2CD83E093EE62E00F94F5F183
:10F2D0008AE192EE60E00F94C2F18091C00087FF56
:10F2E000FCCF1091C6001F751093C6008091C0001E
:10F2F00086FFFCCF8091C00080648093C0000F9493
:10F30000DCF1812F81548A3108F036C1163409F4BA
:10F3100095C0173490F4133409F44EC0143430F40B
:10F320001134F1F0123409F01DC130C0143409F465
:10F3300059C0153409F016C16BC01A3409F4C4C0A1
:10F340001B3438F4173409F48FC0183409F00AC19B
:10F35000A1C01B3409F4D2C01C3409F003C1E8C0B9
:10F360008FEF81B90DC082B1809582B980E090E0C5
:10F37000E0EDF7E03197F1F70196883C9105C1F790
:10F380008091C00087FFEFCF12B8EFC08FEF84B934
:10F390000DC085B1809585B980E090E0E0EDF7E0A3
:10F3A0003197F1F70196883C9105C1F78091C00033
:10F3B00087FFEFCF15B8D9C08FEF87B90DC088B1DF
:10F3C000809588B980E090E0E0EDF7E03197F1F7C3
:10F3D0000196883C9105C1F78091C00087FFEFCF6F
:10F3E00018B8C3C08FEF8AB90DC08BB180958BB9A7
:10F3F00080E090E0E0EDF7E03197F1F70196883C8E
:10F400009105C1F78091C00087FFEFCF1BB8ADC059
:10F410008FEF8DB90DC08EB180958EB980E090E0F0
:10F42000E0EDF7E03197F1F70196883C9105C1F7DF
:10F430008091C00087FFEFCF1EB897C08FEF80BBD1
:10F440000DC081B3809581BB80E090E0E0EDF7E0F6
:10F450003197F1F70196883C9105C1F78091C00082
:10F4600087FFEFCF11BA81C08FEF83BB0DC084B38C
:10F47000809584BB80E090E0E0EDF7E03197F1F714
:10F480000196883C9105C1F78091C00087FFEFCFBE
:10F4900014BA6BC08FEF809301010FC080910201FD
:10F4A00080958093020180E090E0E0EDF7E03197F5
:10F4B000F1F70196883C9105C1F78091C00087FF64
:10F4C000EDCF1092020151C08FEF809304010FC065
:10F4D0008091050180958093050180E090E0E0ED4A
:10F4E000F7E03197F1F70196883C9105C1F78091DB
:10F4F000C00087FFEDCF1092050137C08FEF8093DA
:10F5000007010FC08091080180958093080180E079
:10F5100090E0E0EDF7E03197F1F70196883C910536
:10F52000C1F78091C00087FFEDCF109208011DC088
:10F530008FEF80930A010FC080910B01809580931B
:10F540000B0180E090E0E0EDF7E03197F1F70196F4
:10F55000883C9105C1F78091C00087FFEDCF1092E4
:10F560000B0103C085E292EEEEC98091C00087FFD7
:10F57000FCCF8091C600EAC988E392EEE4C98CE131
:10F5800091EEE1C988249924933011F1943028F444
:10F59000913089F09230B8F408C0953061F195301F
:10F5A000F0F0963009F048C043C02B3109F042C951
:10F5B00091E06BE13FC96227C15DDE4F2883CF52E6
:10F5C000D14092E037C9B22FA0E0622793E032C960
:10F5D000822F90E0A82BB92B622794E02BC92E3004
:10F5E00009F039C3622795E0C05DDE4F19821882A9
:10F5F000C053D1401FC9E1E0F0E0EC0FFD1FC05D3A
:10F60000DE4F08811981C053D140E00FF11F2083E4
:10F610000F5F1F4FC05DDE4F19830883C053D14079
:10F6200062270A171B0709F005C9D80196E002C92D
:10F63000261709F010C303C0973009F0FBC87724E0
:10F640009981933109F412C19431C8F4963009F4C8
:10F65000D8C0973050F4923009F406C1933009F4C1
:10F660006DC0913009F059C253C0913109F477C08F
:10F67000923108F0BBC0903109F04FC2F5C098310B
:10F6800009F487C0993150F4953109F4EFC09531F0
:10F6900008F4C6C1963109F040C2C2C19A3109F4DA
:10F6A0006CC09A3108F491C09B3109F45BC09D3164
:10F6B00009F033C29D81903359F48F81882311F46E
:10F6C0009EE11CC0813011F091E018C098E916C08D
:10F6D000892F807591F0903539F4E0E0F0E089E011
:10F6E0008093570094910AC0983539F4E3E0F0E034
:10F6F00089E080935700949101C090E01A821B82A8
:10F700008D818C831D829E831F8227E030E009C299
:10F710001A8288E08B8381E48C8386E58D8382E581
:10F720008E8389E48F8383E5888780E589878FE5E9
:10F730008A8782E38B872BE030E0F3C18A818139AD
:10F7400041F0823941F0803911F48FE005C080E04A
:10F7500003C082E001C08AE01A828B8344C0772410
:10F76000739482C08D81882311F48EE12CC0813086
:10F7700011F081E028C088E926C01A82E1E0F0E0BB
:10F7800089E08093570084918B831C8224E030E0D1
:10F79000C8C18B81803589F48C81883039F4E2E0EE
:10F7A000F0E089E08093570084910DC0E0E0F0E044
:10F7B00089E080935700849106C0E3E0F0E089E09F
:10F7C0008093570084911A82DFCF8D81836C99E0FA
:10F7D000E1E0F0E0082E90935700E89507B600FCB2
:10F7E000FDCF1A821B8223E030E09BC180EC8A832C
:10F7F000CE5CDE4F188219821A821B82C253D1401E
:10F800008EC18A8190E0A0E0B0E0582F44273327D2
:10F8100022278B8190E0A0E0B0E0DC0199278827C7
:10F82000282B392B4A2B5B2B8D8190E0A0E0B0E098
:10F83000282B392B4A2B5B2B8C8190E0A0E0B0E089
:10F84000BA2FA92F982F8827282B392B4A2B5B2BCF
:10F85000220F331F441F551FC05EDE4F288339839C
:10F860004A835B83C052D1401A8259C13A81C95C34
:10F87000DE4F3883C753D140CA5CDE4F1882C6536F
:10F88000D1408B81C82EDD24CA5CDE4F488159816E
:10F89000C653D140C42AD52A933109F082C0CE5C28
:10F8A000DE4F88819981AA81BB81C253D1408050AB
:10F8B000904CA340B04030F583E0CE5CDE4FE88052
:10F8C000F9800A811B81C253D140F70100935B008C
:10F8D00080935700E89507B600FCFDCFCE5CDE4F65
:10F8E000088119812A813B81C253D14000501F4FAA
:10F8F0002F4F3F4FCE5CDE4F088319832A833B8313
:10F90000C253D140C05EDE4F488159816A817B81FC
:10F91000C052D140DE011B9631E08C9111962C91A2
:10F9200011971296C75CDE4F2883C953D140C85C3B
:10F93000DE4F1882C853D14090E0C85CDE4FE881AA
:10F94000F981C853D1408E2B9F2B0C01FA01609393
:10F950005B0030935700E89511244E5F5F4F6F4F67
:10F960007F4F0EEFE02E0FEFF02ECE0CDF1CC114F8
:10F97000D10499F685E0C05EDE4F088119812A81A5
:10F980003B81C052D140F80120935B008093570027
:10F99000E89507B600FCFDCF81E180935700E8951C
:10F9A00035C0C05EDE4F88819981AA81BB81C0527B
:10F9B000D140B695A795979587957C018601ABE0D8
:10F9C000AA2EB12CAC0EBD1E0BC0D5016D915D01F0
:10F9D000C7010F947FFE0894E11CF11C01501040F8
:10F9E0000115110591F7A60160E070E0440F551F65
:10F9F000661F771FC05EDE4FE880F9800A811B8199
:10FA0000C052D1404E0D5F1D601F711F1A82C05E33
:10FA1000DE4F488359836A837B83C052D1407FC0C5
:10FA2000FA80C55CDE4FF882CB53D140C65CDE4F16
:10FA30001882CA53D1408B81C82EDD24C65CDE4FAC
:10FA400008811981CA53D140C02AD12A1A828981DA
:10FA5000BE016D5F7F4F843121F59601C05EDE4FA0
:10FA6000E880F9800A811B81C052D1400BBFF701A9
:10FA700087919691DB018C9311969C936E5F7F4FDB
:10FA8000D801C7010296A11DB11DC05EDE4F88835B
:10FA90009983AA83BB83C052D14022503040F1F6F3
:10FAA00036C0C05EDE4F288139814A815B81C052F9
:10FAB000D1400894C108D108760100E010E0089414
:10FAC000C11CD11C0894E11CF11C011D111DE20E8A
:10FAD000F31E041F151F21BDBB27A52F942F832FB5
:10FAE00082BD2F5F3F4F4F4F5F4FF89A80B5DB01CC
:10FAF0008D93BD012E153F054007510761F7C05E8C
:10FB0000DE4F288339834A835B83C052D1409601FC
:10FB10002D5F3F4FFB01108204C080EC8A8322E0FE
:10FB200030E08BE18093C6008091C00086FFFCCF5F
:10FB30008091C00080648093C000C15DDE4FF88179
:10FB4000CF52D140F093C6008091C00086FFFCCF19
:10FB50008091C00080648093C000432F3093C60022
:10FB60008091C00086FFFCCF8091C00080648093AC
:10FB7000C000922F2093C6008091C00086FFFCCF6A
:10FB80008091C00080648093C0008EE08093C600A6
:10FB90008091C00086FFFCCF8091C000806480937C
:10FBA000C00065E1C15DDE4FE880CF52D1406E25D7
:10FBB00069276427FE01319610C090819093C6009A
:10FBC0008091C00086FFFCCF31968091C000806498
:10FBD0008093C0006927215030402115310569F715
:10FBE0006093C6008091C00086FFFCCF8091C0006A
:10FBF00080648093C00085B1805885B9772081F4F6
:10FC0000C15DDE4F0881CF52D1400F5FC15DDE4F35
:10FC10000883CF52D14090E0A0E0B0E00D941AF4F8
:10FC200027982F9880E090E020ED37E0F901319798
:10FC3000F1F7019684369105C9F700008091C00064
:10FC40008D7F8093C00081E180935700E895EE2777
:10FC5000FF270994FFCF90E00D941AF497FB092E2B
:10FC600007260AD077FD04D02ED006D000201AF443
:10FC7000709561957F4F0895F6F7909581959F4F08
:10FC80000895A1E21A2EAA1BBB1BFD010DC0AA1FDD
:10FC9000BB1FEE1FFF1FA217B307E407F50720F0F5
:10FCA000A21BB30BE40BF50B661F771F881F991F70
:10FCB0001A9469F760957095809590959B01AC01B9
:10FCC000BD01CF010895AA1BBB1B51E107C0AA1FAC
:10FCD000BB1FA617B70710F0A61BB70B881F991FED
:10FCE0005A95A9F780959095BC01CD010895F99991
:10FCF000FECF92BD81BDF89A992780B50895262F31
:10FD0000F999FECF1FBA92BD81BD20BD0FB6F89400
:0EFD1000FA9AF99A0FBE01960895F894FFCF63
:040000033000E000E9
:00000001FF