:1000000015C1000044C1000042C1000040C1000011
:100010003EC100003CC100003AC1000038C10000F0
:1000200036C1000034C1000032C1000030C1000000
:100030002EC100002CC100002AC1000028C1000010
:1000400026C1000024C1000022C1000020C1000020
:100050001EC100001CC100001AC10000E7C300005F
:1000600016C100009EC2000073C2000010C1000053
:100070000EC100000CC100000AC1000008C1000050
:1000800006C1000004C1000002C1000000C1000060
:10009000FEC00000FCC00000FAC00000F8C0000074
:1000A000F6C00000F4C00000F2C00000F0C0000084
:1000B000EEC00000ECC00000EAC00000E8C0000094
:1000C000E6C00000E4C00000E2C00000E0C00000A4
:1000D000DEC00000DCC00000DAC00000D8C00000B4
:1000E000D6C0000069026C025B025F026502A302D7
:1000F000700274027A027E02820288028C029002EE
:10010000A30296029A029E0200002100240027000A
:100110002A002D0030003300010100000401070116
:100120000A0100000A0B02090C0D0E080703040166
:1001300000000000000000000000000000000000BF
:10014000000000000000000000000000000012118C
:10015000100000000000000000000000000000008F
:100160000000000000000000000020002300260026
:1001700029002C002F0032000001000003010601BD
:1001800009010102102020080810204010204080A2
:10019000020102010804020101020408102040804B
:1001A00080402010080402018004020180402010D9
:1001B0000804020108040201010204081020408022
:1001C00001020408102040800000220025002800C1
:1001D0002B002E003100340002010000050108014F
:1001E0000B010505050507050808080802020202BB
:1001F0000A0A0808040404040101010101010101C3
:100200000303030303030303040707070C0C0C0C8D
:100210000C0C0C0C02020202060606060606060676
:100220000B0B0B0B0B0B0B0BD510C61011241FBEA9
:10023000CFEFD1E2DEBFCDBF00E00CBF24E0A2E1F2
:10024000B3E001C01D92A339B207E1F713E0A0E0CB
:10025000B2E0E0EBFCE200E00BBF02C007900D92C1
:10026000A231B107D9F711E0C5E1D1E000E006C045
:1002700021970109802FFE010E949214C431D107F9
:1002800080E00807A9F70E94290A0C944716B8CE07
:10029000FC01538D448D252F30E0842F90E0821B8C
:1002A000930B541710F0CF96089501970895FC0111
:1002B000918D828D981761F0828DDF01A80FB11D9D
:1002C0005D968C91928D9F5F9F73928F90E00895C1
:1002D0008FEF9FEF0895FC01918D828D981731F07B
:1002E000828DE80FF11D858D90E008958FEF9FEFCF
:1002F0000895FC01918D228D892F90E0805C9F4FA5
:10030000821B91098F73992708958FE393E0F1DFA2
:1003100021E0892B09F420E0822F0895FC01848DCF
:10032000DF01A80FB11DA35ABF4F2C91848D90E01F
:1003300001968F739927848FA689B7892C93A089FA
:10034000B1898C9180648C93938D848D981306C0B1
:100350000288F389E02D80818F7D80830895EF925C
:10036000FF920F931F93CF93DF93EC0181E0888F6F
:100370009B8D8C8D981305C0E889F989808185FD56
:1003800023C0F62E0B8D10E00F5F1F4F0F73112748
:10039000E02E8C8DE8120BC00FB607FCFACFE8896F
:1003A000F989808185FFF5CFCE01B8DFF2CF8B8D43
:1003B000FE01E80FF11DE35AFF4FF0820B8FEA892F
:1003C000FB898081806207C0EE89FF896083E889AC
:1003D000F98980818064808381E090E0DF91CF9112
:1003E0001F910F91FF90EF900895CF93DF93EC0151
:1003F000888D8823C1F0EA89FB89808185FD05C04D
:10040000A889B9898C9186FD0EC00FB607FCF5CF7F
:10041000808185FFF2CFA889B9898C9185FFEDCFC6
:10042000CE017CDFE8CFDF91CF91089580E090E0AE
:10043000892B19F06ADF811125C080E090E0892BBB
:1004400041F080E090E0892B21F00E9400008111B2
:100450001CC080E090E0892B41F080E090E0892B87
:1004600021F00E940000811113C080E090E0892BF0
:10047000A1F080E090E0892B81F00E9400008111C2
:100480000AC008950E940000D8CF0E940000E1CF6A
:100490000E940000EACF0C940000089590E0FC0157
:1004A0003197E231F10508F04EC08827EE58FF4F32
:1004B0008F4F0C949214809180008F7703C08091AD
:1004C00080008F7D80938000089580918000877FD9
:1004D000F9CF84B58F7702C084B58F7D84BD089530
:1004E0008091B0008F7703C08091B0008F7D8093A2
:1004F000B0000895809190008F7707C080919000A0
:100500008F7D03C080919000877F80939000089535
:100510008091A0008F7707C08091A0008F7D03C0DD
:100520008091A000877F8093A00008958091200192
:100530008F7707C0809120018F7D03C080912001BB
:10054000877F809320010895089580E090E00895CA
:100550001F920F920FB60F9211240BB60F922F938A
:100560003F934F935F936F937F938F939F93AF933B
:10057000BF93EF93FF938FE393E0D0DEFF91EF9172
:10058000BF91AF919F918F917F916F915F914F91AB
:100590003F912F910F900BBE0F900FBE0F901F90A9
:1005A00018951F920F920FB60F9211240BB60F924F
:1005B0002F938F939F93EF93FF93E0914F03F091CD
:1005C00050038081E0915503F091560382FD12C0E3
:1005D0009081809158038F5F8F7320915903821708
:1005E00051F0E0915803F0E0E15CFC4F958F80936F
:1005F000580301C08081FF91EF919F918F912F91BE
:100600000F900BBE0F900FBE0F901F901895CF93B9
:10061000DF93282F30E0F901EE5DFE4F8491F90160
:10062000EE57FE4FD491F901EE51FE4FC491CC2309
:1006300089F0811133DFEC2FF0E0EE0FFF1FE85956
:10064000FE4FA591B491EC91ED2381E090E021F46F
:1006500080E002C080E090E0DF91CF9108951F9389
:10066000CF93DF93282F30E0F901EE5DFE4F8491A8
:10067000F901EE57FE4FD491F901EE51FE4FC491AE
:10068000CC23C1F0162F811109DFEC2FF0E0EE0F23
:10069000FF1FE853FE4FA591B4918FB7F894111145
:1006A00005C09C91ED2FE095E92302C0EC91ED2B64
:1006B000EC938FBFDF91CF911F910895CF93DF937C
:1006C000EC0160E08E81CBDF61E08E81C8DF60E00D
:1006D0008E81C5DF8BE891E00197F1F7DF91CF9133
:1006E0000895CF93DF9390E0FC01EE57FE4F2491E5
:1006F000FC01EE51FE4F8491882361F190E0880F58
:10070000991FFC01E85FFE4FC591D491FC01E853AD
:10071000FE4FA591B491611109C09FB7F8948881EB
:10072000209582238883EC912E230BC0623061F4E4
:100730009FB7F8943881822F809583238883EC912A
:100740002E2B2C939FBF06C08FB7F894E8812E2BD9
:1007500028838FBFDF91CF9108953FB7F8948091A0
:100760003B0390913C03A0913D03B0913E0326B51D
:10077000A89B05C02F3F19F00196A11DB11D3FBFD9
:10078000BA2FA92F982F8827820F911DA11DB11D67
:10079000BC01CD0142E0660F771F881F991F4A9563
:1007A000D1F708958F929F92AF92BF92CF92DF922E
:1007B000EF92FF926B017C01D0DF4B015C01C11411
:1007C000D104E104F104E9F0C8DFDC01CB018819B0
:1007D0009909AA09BB09883E9340A105B10578F3A0
:1007E00021E0C21AD108E108F10888EE880E83E002
:1007F000981EA11CB11CC114D104E104F10421F71D
:10080000DECFFF90EF90DF90CF90BF90AF909F90A2
:100810008F9008952FB7F894609137037091380343
:100820008091390390913A032FBF08951F920F9240
:100830000FB60F9211242F933F938F939F93AF93F3
:10084000BF938091370390913803A0913903B09101
:100850003A033091360323E0230F2D3720F401961D
:10086000A11DB11D05C026E8230F0296A11DB11DD3
:10087000209336038093370390933803A093390372
:10088000B0933A0380913B0390913C03A0913D03C8
:10089000B0913E030196A11DB11D80933B0390933F
:1008A0003C03A0933D03B0933E03BF91AF919F9152
:1008B0008F913F912F910F900FBE0F901F90189521
:1008C000CF92DF92EF92FF920F931F93CF93DF931C
:1008D0007C016C0187E0C80ED11CC0E0D0E0062F7F
:1008E00010E0B8010C2E02C0759567950A94E2F7E6
:1008F0006170F60181916F01B2DE2196C430D1059D
:1009000081F7C701DF91CF911F910F91FF90EF9079
:10091000DF90CF90D3CECF92DF92EF92FF920F93E2
:100920001F93CF93DF93EC01F62E642F8C8197DE1B
:100930008D818F3F11F060E092DE8F850F2D10E0EA
:1009400084FF23C06E0187E0C80ED11CE12CF12C7E
:10095000B8010E2C02C0759567950A94E2F7617094
:10096000F60181916F017BDEFFEFEF1AFF0A88E04D
:10097000E816F10469F7CE01DF91CF911F910F9135
:10098000FF90EF90DF90CF9099CEB80184E07595FD
:1009900067958A95E1F7CE0193DF6F2DCE01DF9148
:1009A000CF911F910F91FF90EF90DF90CF9088CF64
:1009B00041E0B1DF81E090E0089540E0ACCFE0E0BD
:1009C000F2E0158A8FEF868B178A108E818F128E38
:1009D00012A683A714A615A686A717A60895E0E079
:1009E000F2E08FEF858B868B178A808F818F128E36
:1009F00082A783A714A685A786A717A608950F9395
:100A00001F93CF93DF9302E012E0C0E0D0E0F80143
:100A10008081319790813197408120917C04309181
:100A20007D04C217D30750F450E060E070E0BA01D3
:100A300055274427592B482BCE01A6D180918204FB
:100A400090918304892B09F0E8D021960D5F1F4F08
:100A5000C031D105E1F6DF91CF911F910F9108953B
:100A6000E0E0F2E08FEF858B168A178A808F118E77
:100A7000128E82A713A614A685A716A617A6BFCF07
:100A8000EF92FF920F931F93CF93DF93EC016230AD
:100A900018F08F8588608F876B8B1C8A80E48D8B24
:100AA00080E18E8B80E58F8B61E08C811ADE8D81F9
:100AB0008F3F11F061E015DE61E08E8112DE7E0174
:100AC00087E0E80EF11C00E010E08F8584FD03C094
:100AD00084E090E002C088E090E00817190744F431
:100AE00061E0F70181917F01FCDD0F5F1F4FEDCFCA
:100AF0008BE39DE00197F1F760E08C81B0DD60E071
:100B00008E81ADDD8D818F3F11F060E0A8DD6F85B6
:100B100064FD19C063E0CE01D3DE0BE416E4C80126
:100B20000197F1F763E0CE01CBDEC8010197F1F741
:100B300063E0CE01C5DE83E592E00197F1F762E064
:100B4000CE01BEDE13C06062CE0137DF8BE496E4D7
:100B50000197F1F76F856062CE012FDF83E592E0A8
:100B60000197F1F76F856062CE0127DF6F856062C4
:100B7000CE0123DF84E0888B6CE0CE011EDF61E0D4
:100B8000CE011BDF8BE39FE10197F1F782E0898BB8
:100B900066E0CE01DF91CF911F910F91FF90EF9012
:100BA0000CCFEFE3F3E0A089B18982E08C93A485B8
:100BB000B5851C92A685B7858FEC8C93108EA48981
:100BC000B58986E08C93A289B3898C9180618C93DE
:100BD000A289B3898C9188608C93A289B3898C9106
:100BE00080688C930288F389E02D80818F7D8083DB
:100BF0000895643008F063E090913704691710F0AD
:100C00006FEF690FE62FF0E0EC5DFB4F9489682FE2
:100C1000690F606884E294E0D0CE0F931F93CF9366
:100C2000DF93CDB7DEB729970FB6F894DEBF0FBEBE
:100C3000CDBF93DD009188041091890420918A042E
:100C400030918B04DC01CB01801B910BA20BB30B09
:100C50008C329140A105B10560F3F89480917E0437
:100C600090917F049A838983E0918204F0918304B8
:100C7000DF0111968081898790917A04E0918C043C
:100C8000F0918D0480918E04992309F42EC09081F7
:100C9000982B98879081809589238F838F818C836F
:100CA00088E08B8358856F8149853B812C818981C0
:100CB0009A81508347FD252F3A952083262F39F0BE
:100CC000441F00C000006083000000C0F2CF38E085
:100CD0004D9160830000019761F7F0938D04E093DC
:100CE0008C0449873B832C8338C09081982B98874C
:100CF0009081809589238F838F818E8388E08D8377
:100D000058856F8149853D812E8189819A815083E3
:100D100047FD252F00C000C0208300C000C000C0D8
:100D200000C000C060830000262F3A9541F0441FA8
:100D3000000000C000C000C000C000C0E8CF38E024
:100D40004D9100C0608300C0019709F7F0938D04B6
:100D5000E0938C0449873D832E839A83898378941A
:100D6000FCDC609388047093890480938A049093D8
:100D70008B0429960FB6F894DEBF0FBECDBFDF916E
:100D8000CF911F910F9108958F929F92AF92BF9232
:100D9000CF92DF92EF92FF924B01AA24BB24E82D61
:100DA000C52ED62EE72EFF24FC2D342F2091810452
:100DB000222361F0829E40011124E92DC29E600130
:100DC0001124FD2D429FD00111243B2FF090870468
:100DD000E0908404A0918204B0918304FE1008C0C6
:100DE000AC01440F551F840F951F8A0F9B1F14C021
:100DF000880F991F880F991F8A0F9B1F472F552710
:100E000066277727DC01AF0DB11D222321F0429F19
:100E1000A0011124452F4C9320918404DC01A20FE2
:100E2000B11DEC9320918504DC01A20FB11DFC9350
:100E300020918604FC01E20FF11D3083FF90EF90BA
:100E4000DF90CF90BF90AF909F908F9008950F93B9
:100E50001F9390E0FC01EE57FE4F6491FC01EE51B0
:100E6000FE4FE491F0E0EE0FFF1FE859FE4F859131
:100E7000949100E412E42FE030E0462FA5D26115F2
:100E800071058105910549F0DC01CB010196A11D99
:100E9000B11DBC01CD019F7003C060E070E0CB01CB
:100EA0001F910F910895CF92DF92EF92FF920F93CF
:100EB0001F93CF93DF936C017A018B01C0E0D0E0E8
:100EC000CE15DF0589F0D8016D918D01D601ED9128
:100ED000FC910190F081E02DC6011995892B11F448
:100EE0007E0102C02196ECCFC701DF91CF911F9107
:100EF0000F91FF90EF90DF90CF9008950E944316DE
:100F0000AF92BF92CF92DF92EF92FF920F931F9317
:100F1000CF93DF937FDCDC01CB019C01AD0160E06E
:100F200070E080E090E0A0905E04B0905F04C0901C
:100F30006004D0906104E0906204F090630400913A
:100F40006404109165040E94F814ACE30E940A1531
:100F500009F300F35FDCDC01CB0180935E04909326
:100F60005F04A0936004B093610410926204109235
:100F70006304109264041092650460E0809152044E
:100F80006EDB83E090E00197F1F761E0809152041D
:100F900066DB83E290E00197F1F760E08091520414
:100FA0005EDB8091540453DF0E941C1220E030E08D
:100FB00048E652E40E94B8136093560470935704B5
:100FC0008093580490935904609366047093670467
:100FD0008093680490936904DF91CF911F910F91E2
:100FE000FF90EF90DF90CF90BF90AF900895CF9398
:100FF000DF93CCE3D4E060E0888131DB60E08A817C
:101000002EDB60E08C812BDB60E08E8128DB60E0F2
:10101000888525DB60E08A8522DB60E08C851FDB2C
:1010200060E08E85DF91CF911ACBCF93DF93CCE335
:10103000D4E060E08C8513DB61E08E8510DB60E03E
:1010400088810DDB61E08A810ADB61E0888507DB4E
:1010500060E08A8504DB61E08C8101DB60E08E81E9
:10106000DF91CF91FCCACF93DF93CCE3D4E060E073
:101070008885F5DA61E08A85F2DA60E08C85EFDA5E
:1010800061E08E85ECDA60E08881E9DA61E08A81EE
:10109000E6DA60E08C81E3DA61E08E81DF91CF9166
:1010A000DECACF93DF93CCE3D4E061E08885D7DA62
:1010B00060E08A85D4DA61E08C85D1DA60E08E85E3
:1010C000CEDA61E08881CBDA60E08A81C8DA61E05B
:1010D0008C81C5DA60E08E81DF91CF91C0CACF9359
:1010E000DF93CCE3D4E060E08C81B9DA61E08E81FB
:1010F000B6DA60E08C81B3DA61E08E81B0DA61E06B
:101100008C85ADDA60E08E85AADA61E08881A7DAA5
:1011100060E08A81DF91CF91A2CA6115710579F0F3
:10112000FB0101900020E9F73197AF01461B570BF7
:10113000DC01ED91FC910280F381E02D199480E0B7
:1011400090E008954F925F926F927F92EF92FF929C
:101150000F931F93CF93DF93CDB7DEB7A1970FB651
:10116000F894DEBF0FBECDBF7C01FA01CB0119A2FE
:10117000223008F42AE08E010F5D1F4F422E512CC1
:10118000612C712CBF01A30192010E943113F9015E
:10119000CA01015011096A3014F4605D01C0695C34
:1011A000D8016C93232B242B252B61F7B801C701A1
:1011B000B4DFA1960FB6F894DEBF0FBECDBFDF91AE
:1011C000CF911F910F91FF90EF907F906F905F9064
:1011D0004F9008954F925F926F927F928F929F925D
:1011E000AF92BF92CF92DF92EF92FF92CF93DF93B5
:1011F000EC016A017B01B22E9A01AB01C701B60175
:101200000E948E14882319F065E073E027C0260140
:101210003701E89477F82FEF3FEF4FE75FE7C3011F
:10122000B2010E948E1481110DC02FEF3FEF4FE7E6
:101230005FE7C301B2010E94181218161CF469E09E
:1012400073E00CC02FEF3FEF4FE75FE4C701B6013B
:101250000E948A14181694F46DE073E0CE01DF91B9
:10126000CF91FF90EF90DF90CF90BF90AF909F9085
:101270008F907F906F905F904F904FCF2FEF3FEF09
:101280004FE75FECC701B6010E94181287FDE4CF5B
:1012900020E030E0A901C701B6010E94181287FFC3
:1012A0000EC0E881F9810190F081E02D6DE2CE0160
:1012B00019954C01F7FAF094F7F8F09402C0812CDC
:1012C000912CA12C60E070E080E09FE3AB1441F032
:1012D00020E030E040E251E40E94B813A394F6CF3E
:1012E0009B01AC01C701B6010E9454132B013C01C4
:1012F0000E9420146B017C010E941C129B01AC0116
:10130000C301B2010E9453132B013C012AE0B70133
:10131000A601CE0117DF7C01E80CF91CBB2051F0BF
:10132000E881F9810190F081E02D6EE2CE011995FE
:10133000E80EF91EDB2CDD2021F120E030E040E258
:1013400051E4C301B2010E947D122B013C010E94B5
:1013500020144B01A12CB12C2AE0B501A401CE012F
:10136000F1DEE80EF91EC501B4010E941C129B01BA
:10137000AC01C301B2010E9453132B013C01DA946A
:10138000DACFC701DF91CF91FF90EF90DF90CF9040
:10139000BF90AF909F908F907F906F905F904F9095
:1013A00008950F931F93CF93DF93EC01B6DE8C016A
:1013B00063E672E0CE01B1DE800F911FDF91CF9125
:1013C0001F910F910895A9CECF92DF92EF92FF92D5
:1013D0000F931F93E82FF92F05C001501109210920
:1013E000310961F1908196239417B9F305C001503A
:1013F00011092109310911F1908196239413F7CF36
:10140000C12CD12CE12CF12C0AC08FEFC81AD80ABC
:10141000E80AF80A0C151D052E053F0579F08081B4
:101420008623841791F36C2D7D2D8E2D9F2D1F917A
:101430000F91FF90EF90DF90CF90089560E070E003
:1014400080E090E01F910F91FF90EF90DF90CF90A0
:101450000895CF93DF93CDB7DEB729970FB6F894F1
:10146000DEBF0FBECDBF789484B5826084BD84B5E5
:10147000816084BD85B5826085BD85B5816085BD8F
:1014800080916E00816080936E0010928100809147
:1014900081008260809381008091810081608093CF
:1014A0008100809180008160809380008091B100F4
:1014B00084608093B1008091B00081608093B0001F
:1014C0008091910082608093910080919100816071
:1014D0008093910080919000816080939000809132
:1014E000A10082608093A1008091A100816080931F
:1014F000A1008091A00081608093A00080912101D3
:10150000826080932101809121018160809321017B
:101510008091200181608093200180917A00846015
:1015200080937A0080917A00826080937A00809123
:101530007A00816080937A0080917A00806880933D
:101540007A001092C100109220041092210410928F
:101550002204109223041092DE031092DF031092F3
:10156000E0031092E10368EB7BE080E090E01AD9A1
:101570008FE393E090931F0480931E0412DB4AD9FB
:101580006093DE037093DF038093E0039093E103A5
:1015900064E572E080911E0490911F0414DF6AE0FC
:1015A00070E080E090E0FED811E01093F2039FE03D
:1015B00088E10FB6F894A895809360000FBE9093D1
:1015C0006000EFDA61E082E08CD860E083E089D8E7
:1015D00082E090E0909353048093520483E090E083
:1015E00090935504809354048CE090E090934D04C4
:1015F00080934C0484EF809326031093270310926A
:1016000028031092290310922A0310922B031092A0
:101610002C0310922D0361E08DE063D884E090E00C
:1016200090933D0480933C0485E090E090933F04C8
:1016300080933E0487E090E09093410480934004BF
:1016400086E090E0909343048093420488E090E029
:10165000909345048093440489E090E0909347047C
:10166000809346048AE090E0909349048093480474
:101670008BE090E090934B0480934A0461E088E013
:1016800030D861E0809146042CD861E08091480414
:1016900028D861E080914A0424D861E080913C041C
:1016A00020D861E080913E041CD861E08091400424
:1016B00018D861E08091420414D8ACD8672B682B0D
:1016C000692B39F4A7D8623071058105910508F4BA
:1016D000F9C0A0D860931603709317038093180382
:1016E0009093190300911203109113032091140396
:1016F00030911503601771078207930740F46093D8
:1017000012037093130380931403909315030091B5
:1017100012031091130320911403309115036B01F0
:101720007C01C01AD10AE20AF30A970186010A3F36
:1017300011052105310508F4C5C0609312037093AB
:101740001303809314039093150384EF91E0A0E0BA
:10175000B0E08093EA039093EB03A093EC03B09383
:10176000ED031092EE031092EF031092F00310922B
:10177000F1038091E2039091E303A091E403B0911F
:10178000E5038093E6039093E703A093E803B09307
:10179000E90340D86093E2037093E3038093E4038A
:1017A0009093E50337D86093DE037093DF03809353
:1017B000E0039093E1032ED86B017C0166E672E0B2
:1017C00080911E0490911F04FEDD2AE041E050E06C
:1017D00060E070E080911E0490911F04B3DC6DE620
:1017E00072E080911E0490911F04EDDD2AE0B701A4
:1017F000A60180911E0490911F04A4DC6FE672E0A4
:1018000080911E0490911F04DEDD8091E20390918F
:10181000E303A091E403B091E503B701A601481BDF
:10182000590B6A0B7B0B2AE080911E0490911F04D8
:1018300089DC6FE672E080911E0490911F04C3DD85
:101840004091E2035091E3036091E4037091E5035A
:101850008091E6039091E703A091E803B091E9033A
:10186000481B590B6A0B7B0B2AE080911E04909158
:101870001F0468DC61E772E080911E0490911F04F0
:10188000A2DD0E940A04AB01BC012AE080911E0483
:1018900090911F0457DC63E772E080911E049091E1
:1018A0001F047FDD62E070E080E090E00E94D203E0
:1018B0000E940A046093E2037093E3038093E403BD
:1018C0009093E5038091800487FD08C061E00E9449
:1018D000710360E0809180040E942F0381E0809377
:1018E0007B0400E010E080917C0490917D04081757
:1018F000190728F446E950E0BA01C80145DA809199
:10190000820490918304892B09F087D962E370E007
:1019100080E090E00E94D2030F5F1F4F003111055D
:1019200011F762E084E294E0ABD86AE772E084E207
:1019300094E049DD61E084E294E03FD88BE39FE1ED
:101940000197F1F760E080E054D96EE872E084E23C
:1019500094E039DD61E080E04CD968E872E084E22F
:1019600094E031DD0E940A044B015C019B01A5015A
:1019700060E070E080E090E0A0902E03B0902F0334
:10198000C0903003D0903103E0903203F0903303E5
:1019900000913403109135030E94F814A09026039F
:1019A000B0902703C0902803D0902903E0902A0329
:1019B000F0902B0300912C0310912D030E94011530
:1019C000F8F08DE00E940703892B11F060E001C060
:1019D00061E08DE00E942F030E940A048B019C01AC
:1019E00060932E0310932F03209330033093310321
:1019F0001092320310923303109234031092350385
:101A0000A8958FE393E00E947901181619060CF04F
:101A100089C08FE393E00E945701182F813459F554
:101A20008091240390912503009769F4EE24E394B8
:101A3000F12CF0922503E092240360E080E0D9D8F5
:101A40006AE872E033C0019761F482E090E090931D
:101A500025038093240360E080E0CBD863E972E043
:101A600025C0109225031092240360E080E0C1D8C5
:101A70006CE972E01BC08434E1F461E080E0B9D825
:101A80008091220390912303892B51F4CC24C39499
:101A9000D12CD0922303C092220364EF72E006C0DF
:101AA000109223031092220368E872E084E294E02B
:101AB0008ADC8091240390912503009789F41734E0
:101AC00021F01C3411F0133531F46EE872E084E239
:101AD00094E079DC27C01235C1F3123419F5F5CF43
:101AE000019771F4173471F01C3481F0133591F0C3
:101AF000123511F4F4DA16C01234A1F4D2DA12C09D
:101B0000173411F4B0DA0EC01C3411F48EDA0AC0A6
:101B1000133511F46CDA06C0123561F3123471F327
:101B20001634C1F360E088E064D82091240330913A
:101B3000250380912203909123032230310531F552
:101B4000892B91F4DDD920E030E048E452E470D4F0
:101B500018160CF414C3D4D920E030E040E050E46F
:101B6000D9D687FF61C00BC3CBD920E030E048E471
:101B700052E45ED418160CF4B3C2C2D920E030E0AF
:101B800040E050E4C7D687FF4FC0AAC2232B31F5EF
:101B9000892B91F4B5D920E030E048E452E448D4F0
:101BA00018160CF4ABC2ACD920E030E040E050E4B1
:101BB000B1D687FFB3C2A2C2A3D920E030E048E487
:101BC00053E436D418160CF4C0C29AD920E030E0A1
:101BD00040EA51E49FD687FFA1C2B7C2892B91F496
:101BE0008FD920E030E048E452E422D418160CF4F7
:101BF000C6C286D920E030E040E050E48BD687FFB3
:101C00008DC2BDC27DD920E030E048E453E410D459
:101C100018160CF4A6C274D920E030E040EA51E472
:101C200079D687FF7BC29DC20E9430056CEF72E0BF
:101C300084E294E0C8DB90904C0419821A821B82E3
:101C40001C821D8261E0892D0E94710360E0892D54
:101C50000E942F0362E170E080E090E00E94D203D6
:101C600061E0892D0E942F038BE990E00197F1F745
:101C700060E0892D0E94710301E117E2892D0E9425
:101C80000703892B31F401501109C1F78EEF9FEF43
:101C900070C001E117E2892D0E940703019721F42A
:101CA00001501109C1F7F2CF38E2632E712C17E011
:101CB000812C21E1E22E27E2F22E892D0E940703DA
:101CC000892B29F421E0E21AF108B9F7DFCF0E944D
:101CD000AD036B017C0191E1492E97E2592E892DCC
:101CE0000E940703019729F481E0481A5108B9F7C7
:101CF000CDCF0E94AD03DC01CB018C199D09AE094B
:101D0000BF098997A105B10580F0E1E0F0E0EC0F93
:101D1000FD1FE80DF11D208181E090E0012E01C042
:101D2000880F0A94EAF7822B8083111103C08394F1
:101D300017E001C0115091E0691A710809F0B9CF9C
:101D40008981282F30E030934F0420934E042B815B
:101D5000422F50E05093510440935004280F81E0EB
:101D600090E03D81321302C080E090E09195819532
:101D700091098F3FEFEF9E0729F0892B41F065ED28
:101D800072E002C06FEB72E08FE393E00ADB6091D8
:101D9000500470915104072E000C880B990B4ED300
:101DA00060931E0370931F0380932003909321037D
:101DB00060914E0470914F04072E000C880B990B14
:101DC0003DD360931A0370931B0380931C0390937D
:101DD0001D0361E081E00E94F9056BEE72E084E290
:101DE00094E0F1DA6BEE72E084E294E0ECDA61E028
:101DF00081E00E94F905C0901E03D0901F03E0907F
:101E00002003F090210320E030E0A901C701B601D2
:101E100081D518160CF06EC020E030E048E452E4A2
:101E2000C701B60105D387FF65C00E940A044B01B4
:101E30005C019B01A50160E070E080E090E0A09073
:101E40005E04B0905F04C0906004D0906104E090A4
:101E50006204F09063040091640410916504C8D595
:101E6000ACE3D8D511F308F30E940A048B019C015E
:101E700060935E0410935F042093600430936104C8
:101E8000109262041092630410926404109265042C
:101E900060E0809152040E942F0383E090E001975C
:101EA000F1F761E0809152040E942F0383E290E0F9
:101EB0000197F1F760E0809152040E942F03809116
:101EC00054040E942707B8D220E030E048E652E4EC
:101ED0004FD46093560470935704809358049093A2
:101EE0005904609366047093670480936804909328
:101EF000690401C005D820E030E048EC52E438D451
:101F0000AB01BC0122E084E294E064D966EF72E0A8
:101F100084E294E058DA61E087E00E94F9050E94CB
:101F20000A044B015C019B01A50160E070E080E0C8
:101F300090E0A0906E04B0906F04C0907004D090B8
:101F40007104E0907204F090730400917404109195
:101F500075044ED5273E3340410551056105710595
:101F60008105910509F008F4AAC00E940A044B01FA
:101F70005C019B01A50160E070E080E090E0A09032
:101F80006E04B0906F04C0907004D0907104E09023
:101F90007204F0907304009174041091750428D5B4
:101FA00039014A016E837F838887998720936E0465
:101FB00070926F0440937004909271046093720465
:101FC000709373048093740490937504C0906A04B2
:101FD000D0906B04E0906C04F0906D0420E030E051
:101FE000A901C701B60124D2882359F1A70196019E
:101FF000609166047091670480916804909169040F
:1020000052D31B012C018AE0A82EB12CC12CD12C5B
:10201000E12CF12C00E010E09301A4016E817F819E
:102020008885998589D438D49B01AC01C201B1015E
:102030009FD3609376047093770480937804909391
:1020400079044091760450917704609178047091FE
:10205000790422E08FE393E0BDD863E672E08FE37A
:1020600093E05BD88091660490916704A091680426
:10207000B091690480936A0490936B04A0936C04FC
:10208000B0936D040E940A048B019C0160936E045E
:1020900010936F04209370043093710410927204B3
:1020A0001092730410927404109275044091760497
:1020B00050917704609178047091790403C040E0F6
:1020C00050E0BA0122E084E294E084D868EF72E044
:1020D00084E294E078D90E94FF040E94160242CC68
:1020E0000E94800720E030E046E953E413D487FDE6
:1020F00010C00E94DF0465EA72E09ACD0E9480075A
:1021000020E030E048EC52E405D487FF1BC00E9479
:1021100033080E94EF046EEA72E08ACD0E94300517
:102120006CEF72E084E294E04ED90E94F7070E94BF
:1021300015086CE271E080E090E00E94D2030E94FA
:10214000F70779CD0E943308D4CF0E94800720E0A2
:1021500030E046E953E4DED387FFF4CF0E94330832
:1021600009C00E94800720E030E046E953E4D2D362
:1021700087FFBFCF0E94EF0467EB72E059CD0E944A
:10218000800720E030E048EC52E4B0CF8091820438
:1021900090918304009709F0DED48091800487FD3C
:1021A00003C060E00C9471030895109242031092F2
:1021B000410388EE93E0A0E0B0E080934303909366
:1021C0004403A0934503B09346038AE392E09093BF
:1021D000400380933F0385EC90E090934C03809301
:1021E0004B0384EC90E090934E0380934D0380EC7E
:1021F00090E09093500380934F0381EC90E0909394
:1022000052038093510382EC90E0909354038093A7
:10221000530386EC90E090935603809355031092FD
:1022200058031092590310925A0310925B031092B4
:10223000E2031092E3031092E4031092E50310927C
:10224000E6031092E7031092E8031092E90310925C
:10225000EA031092EB031092EC031092ED0310923C
:10226000EE031092EF031092F0031092F10310921C
:102270007B041092810410928804109289041092B9
:102280008A0410928B0481E08093870480938404F5
:102290001092850492E09093860480937A0480E300
:1022A00090E090937F0480937E04C0D39093830446
:1022B00080938204009761F020E3FC0111922A953B
:1022C000E9F780E190E090937D0480937C0408C05E
:1022D00010927F0410927E0410927D0410927C0470
:1022E0008DE08093800480917B04882341F061E03D
:1022F0008DE00E94710360E08DE00E942F03EFEEFD
:10230000F1E0E491F0E0EE0FFF1FE853FE4F8591FE
:10231000949190938D0480938C04EFE8F1E0E49124
:10232000E0938E0410925E0410925F041092600499
:10233000109261041092620410926304109264047B
:102340001092650410926A0410926B0410926C044F
:1023500010926D0410926E0410926F04109270042B
:10236000109271041092720410927304109274040B
:102370001092750484E090E090933D0480933C04B7
:1023800085E090E090933F0480933E0487E090E0E6
:10239000909341048093400486E090E0909343043E
:1023A0008093420488E090E0909345048093440435
:1023B00089E090E090934704809346048AE090E09F
:1023C00090934904809348048BE090E090934B04F1
:1023D00080934A0410922704109226048CE492E021
:1023E000909325048093240486E3809328048FEF40
:1023F0008093290487E380932A0488E380932B0445
:1024000089E380932C048AE380932D048BE38093EB
:102410002E0410922F041092300410923104109266
:1024200032041092330461E084E294E00C9440059D
:1024300040D008F481E00895E89409C097FB3EF489
:1024400090958095709561957F4F8F4F9F4F992301
:10245000A9F0F92F96E9BB279395F695879577957F
:102460006795B795F111F8CFFAF4BB0F11F460FF3F
:102470001BC06F5F7F4F8F4F9F4F16C0882311F097
:1024800096E911C0772321F09EE8872F762F05C0AB
:10249000662371F096E8862F70E060E02AF09A9546
:1024A000660F771F881FDAF7880F9695879597F93B
:1024B0000895990F0008550FAA0BE0E8FEEF1616D5
:1024C0001706E807F907C0F012161306E407F50728
:1024D00098F0621B730B840B950B39F40A2661F09C
:1024E000232B242B252B21F408950A2609F4A1403F
:1024F000A6958FEF811D811D08950BD078C069D0FE
:1025000028F06ED018F0952309F05AC05FC011244E
:10251000A2C07ED0A0F3959FD1F3950F50E0551F38
:10252000629FF001729FBB27F00DB11D639FAA2728
:10253000F00DB11DAA1F649F6627B00DA11D661F77
:10254000829F2227B00DA11D621F739FB00DA11D98
:10255000621F839FA00D611D221F749F3327A00D52
:10256000611D231F849F600D211D822F762F6A2FEE
:1025700011249F5750408AF0E1F088234AF0EE0F73
:10258000FF1FBB1F661F771F881F91505040A9F780
:102590009E3F510570F014C05EC05F3FECF3983E63
:1025A000DCF3869577956795B795F795E7959F5FE7
:1025B000C1F7FE2B880F911D9695879597F9089581
:1025C00097F99F6780E870E060E008959FEF80ECE6
:1025D000089500240A941616170618060906089589
:1025E00000240A9412161306140605060895092EEF
:1025F0000394000C11F4882352F0BB0F40F4BF2B5E
:1026000011F460FF04C06F5F7F4F8F4F9F4F08959D
:1026100057FD9058440F551F59F05F3F71F0479593
:10262000880F97FB991F61F09F3F79F08795089578
:10263000121613061406551FF2CF4695F1DF08C097
:10264000161617061806991FF1CF869571056105B4
:1026500008940895E894BB2766277727CB0197F95C
:102660000895A1E21A2EAA1BBB1BFD010DC0AA1FD3
:10267000BB1FEE1FFF1FA217B307E407F50720F0EB
:10268000A21BB30BE40BF50B661F771F881F991F66
:102690001A9469F760957095809590959B01AC01AF
:1026A000BD01CF0108955058BB27AA270ED09FCF58
:1026B00090DF30F095DF20F031F49F3F11F41EF4ED
:1026C00085CF0EF4E095E7FB7BCFE92FA1DF80F308
:1026D000BA17620773078407950718F071F49EF51F
:1026E000B9CF0EF4E0950B2EBA2FA02D0B01B90136
:1026F00090010C01CA01A0011124FF27591B99F078
:10270000593F50F4503E68F11A16F040A22F232F83
:10271000342F4427585FF3CF469537952795A795D3
:10272000F0405395C9F77EF41F16BA0B620B730B7A
:10273000840BBAF09150A1F0FF0FBB1F661F771FEB
:10274000881FC2F70EC0BA0F621F731F841F48F4A0
:10275000879577956795B795F7959E3F08F0B3CF26
:102760009395880F08F09927EE0F97958795089510
:102770000CD03DCF35DF40F02CDF30F021F45F3F4F
:1027800019F01ECF511167CF21CF42DF98F3992363
:10279000C9F35523B1F3951B550BBB27AA27621725
:1027A0007307840738F09F5F5F4F220F331F441F6A
:1027B000AA1FA9F333D00E2E3AF0E0E830D09150A2
:1027C0005040E695001CCAF729D0FE2F27D0660F8F
:1027D000771F881FBB1F261737074807AB07B0E8CE
:1027E00009F0BB0B802DBF01FF2793585F4F2AF0E4
:1027F0009E3F510568F0E4CE2ECF5F3FECF3983E4C
:10280000DCF3869577956795B795F7959F5FC9F740
:10281000880F911D9695879597F90895E1E0660FC9
:10282000771F881FBB1F621773078407BA0720F042
:10283000621B730B840BBA0BEE1F88F7E0950895AB
:10284000EFDE88F09F5790F0B92F9927B751A0F08D
:10285000D1F0660F771F881F991F1AF0BA95C9F734
:1028600012C0B13081F0F6DEB1E00895F3CE672FEB
:10287000782F8827B85F39F0B93FCCF386957795E4
:102880006795B395D9F73EF49095809570956195CD
:102890007F4F8F4F9F4F0895E894F92F96EBFF23BA
:1028A00081F0121613061406440B9395F69587953E
:1028B0007795679557954040FF23B9F71BC0992737
:1028C0000895882351F49850D2F7872B762F652FDF
:1028D000542F432F322F20E0B1F3121613061406A3
:1028E000440B88233AF09A95440F551F661F771FB3
:1028F000881FCAF755234AF4440F551F11F460FF8F
:1029000004C06F5F7F4F8F4F9F4F880F96958795BD
:1029100097F90895CEDD08F48FEF0895CADD880B8E
:10292000990B0895EE0FFF1F881F8BBF0790F6913C
:10293000E02D1994689401C0E8948F929F92CF93F0
:10294000DF9305D0DF91CF919F908F9008958824D9
:102950009924F401E401B0E49F93AA279A158B040B
:102960009C04ED05FE05CF05D007A10798F4AD2F17
:10297000DC2FCF2FFE2FE92D982C892E982F872F13
:10298000762F652F542F432F322F2227B85031F73F
:10299000BF9127C01B2EBF91BB27220F331F441F9F
:1029A000551F661F771F881F991F881C991CEE1FD3
:1029B000FF1FCC1FDD1FAA1FBB1F8A149B04EC0541
:1029C000FD05CE05DF05A007B10748F08A189B0872
:1029D000EC09FD09CE09DF09A00BB10B21601A94A7
:1029E000E1F62EF49401AF01BE01CD01000C089573
:1029F0002A193B094C095D096E097F09800B910B6F
:102A000008952A153B054C055D056E057F05800779
:102A1000910708950024A7FD00942A17300540056A
:102A2000500560057005800590050895CF93DF93EC
:102A30008230910510F482E090E0E0919104F091F1
:102A4000920420E030E0C0E0D0E0309711F1408106
:102A5000518148175907C0F04817590761F482811E
:102A60009381209719F09B838A832BC090939204C3
:102A70008093910426C02115310519F042175307A0
:102A800018F49A01BE01DF01EF010280F381E02D0D
:102A9000DCCF2115310509F1281B390B2430310514
:102AA00090F412968D919C9113976115710521F008
:102AB000FB019383828304C09093920480939104DA
:102AC000FD01329644C0FD01E20FF31F8193919303
:102AD000225031092D933C933AC020918F043091BC
:102AE0009004232B41F42091320230913302309331
:102AF000900420938F0420913002309131022115EF
:102B0000310541F42DB73EB7409134025091350262
:102B1000241B350BE0918F04F0919004E217F3072A
:102B2000A0F42E1B3F0B2817390778F0AC014E5F3D
:102B30005F4F2417350748F04E0F5F1F50939004E6
:102B400040938F048193919302C0E0E0F0E0CF01C5
:102B5000DF91CF9108950F931F93CF93DF93009749
:102B600009F48CC0FC013297138212820091910407
:102B7000109192040115110581F420813181820F99
:102B8000931F20918F04309190042817390779F50D
:102B9000F0939004E0938F0471C0D80140E050E0BE
:102BA000AE17BF0750F412962D913C911397AD01CB
:102BB0002115310509F1D901F3CF9D01DA013383E4
:102BC000228360817181860F971F8217930769F4B2
:102BD000EC0128813981260F371F2E5F3F4F31834B
:102BE00020838A819B8193838283452B29F4F093F0
:102BF0009204E093910442C01396FC93EE931297D3
:102C0000ED01499159919E01240F351FE217F307F9
:102C100071F480819181840F951F029611969C9387
:102C20008E938281938113969C938E931297E0E00A
:102C3000F0E0D80112968D919C911397009719F0AE
:102C4000F8018C01F6CF8D919C9198012E5F3F4F3A
:102C5000820F931F20918F04309190042817390719
:102C600069F4309729F4109292041092910402C0F2
:102C7000138212821093900400938F04DF91CF91FE
:102C80001F910F91089581E090E0F89400C011E049
:102C9000C5E1D1E000E005C0802FFE0143DE2196B2
:102CA000011DC631D10780E00807B1F7F894FFCFC6
:102CB0000000000000000000000000000000000014
:102CC0000000000000FFFFFFFFFFFFFFFFFFFFFF0F
:102CD000FFFFFFFFFFFFFFFFFFFFFFFFFFFFFFFF04
:102CE00000009304800000000000AF01530748017A
:102CF000F501790157016B0100000000D80453076A
:102D0000A502A402564D4450565F317C315F564DAA
:102D10004450560D0A00564D4450455F003A323A31
:102D2000007C005F564D4450450053797374656DC7
:102D300020526561647921005E0053656D694175BB
:102D4000746F004D616E75616C2020004175746F69
:102D500020202020005365637572697479004A75DC
:102D6000737420476F2000576172696E67200044BA
:102D7000485431312D2D436865636B73756D206543
:102D800072726F720044485431312D2D54696D6553
:102D9000206F7574206572726F72002020202020D1
:102DA0002020202020006D006D2F73005761726974
:102DB0006E672020006E616E00696E66006F766639
:022DC000000011
:00000001FF
